:10000000182400209D2700005D9300008927000030
:100010008927000089270000892700008927000020
:100020000000000000000000000000007528000033
:100030008927000000000000212A00008927000015
:10004000A92A0000A92A0000A92A0000A92A000064
:10005000A92A0000A92A0000A92A0000A92A000054
:10006000A92A0000A92A0000A92A0000A92A000044
:10007000A92A0000A92A0000A92A0000A92A000034
:1004800081F0004102E000BF83F0004330B54FEA45
:1004900041044FEA430594EA050F08BF90EA020FB2
:1004A0001FBF54EA000C55EA020C7FEA645C7FEA45
:1004B000655C00F0E2804FEA5454D4EB5555B8BF68
:1004C0006D420CDD2C4480EA020281EA030382EAD9
:1004D000000083EA010180EA020281EA0303362D6B
:1004E00088BF30BD11F0004F4FEA01314FF4801C3E
:1004F0004CEA113102D0404261EB410113F0004F50
:100500004FEA03334CEA133302D0524263EB430306
:1005100094EA050F00F0A780A4F10104D5F1200EA4
:100520000DDB02FA0EFC22FA05F2801841F10001FF
:1005300003FA0EF2801843FA05F359410EE0A5F1D3
:1005400020050EF1200E012A03FA0EFC28BF4CF004
:10055000020C43FA05F3C01851EBE37101F00045BA
:1005600007D54FF0000EDCF1000C7EEB00006EEBC7
:100570000101B1F5801F1BD3B1F5001F0CD3490851
:100580005FEA30004FEA3C0C04F101044FEA4452A8
:1005900012F5800F80F09A80BCF1004F08BF5FEA2F
:1005A000500C50F1000041EB045141EA050130BD0F
:1005B0005FEA4C0C404141EB0101013C28BFB1F521
:1005C000801FE9D291F0000F04BF01460020B1FA6C
:1005D00081F308BF2033A3F10B03B3F120020CDA3F
:1005E0000C3208DD02F1140CC2F10C0201FA0CF01D
:1005F00021FA02F10CE002F11402D8BFC2F1200C82
:1006000001FA02F120FA0CFCDCBF41EA0C01904037
:10061000E41AA2BF01EB0451294330BD6FEA040480
:100620001F3C1CDA0C340EDC04F11404C4F120026B
:1006300020FA04F001FA02F340EA030021FA04F37D
:1006400045EA030130BDC4F10C04C4F1200220FAD4
:1006500002F001FA04F340EA0300294630BD21FA12
:1006600004F0294630BD94F0000F83F4801306BFD8
:1006700081F480110134013D4EE77FEA645C18BFCC
:100680007FEA655C29D094EA050F08BF90EA020F63
:1006900005D054EA000C04BF1946104630BD91EA5B
:1006A000030F1EBF0021002030BD5FEA545C05D15E
:1006B0004000494128BF41F0004130BD14F580049D
:1006C0003CBF01F5801130BD01F0004545F0FE4111
:1006D00041F470014FF0000030BD7FEA645C1ABF46
:1006E000194610467FEA655C1CBF0B46024650EA7D
:1006F000013406BF52EA033591EA030F41F40021A9
:1007000030BD00BF90F0000F04BF0021704730B52E
:100710004FF4806404F132044FF000054FF0000103
:1007200050E700BF90F0000F04BF0021704730B5C4
:100730004FF4806404F1320410F0004548BF404299
:100740004FF000013EE700BF42004FEAE2014FEAEE
:1007500031014FEA02701FBF12F07F4393F07F4FC9
:1007600081F06051704732F07F4208BF704793F0CC
:100770007F4F04BF41F40021704730B54FF46074DF
:1007800001F0004521F000411CE700BF50EA0102E2
:1007900008BF704730B54FF000050AE050EA01028B
:1007A00008BF704730B511F0004502D5404261EBFB
:1007B00041014FF4806404F132045FEA915C3FF43C
:1007C000D8AE4FF003025FEADC0C18BF03325FEAD9
:1007D000DC0C18BF033202EBDC02C2F1200300FA8A
:1007E00003FC20FA02F001FA03FE40EA0E0021FAAF
:1007F00002F11444BDE600BF70B54FF0FF0C4CF49D
:10080000E06C1CEA11541DBF1CEA135594EA0C0F4E
:1008100095EA0C0F00F0DEF82C4481EA030621EA89
:100820004C5123EA4C5350EA013518BF52EA0335C4
:1008300041F4801143F4801338D0A0FB02CE4FF076
:100840000005E1FB02E506F00042E0FB03E54FF0A6
:100850000006E1FB03569CF0000F18BF4EF0010E9E
:10086000A4F1FF04B6F5007F64F5407404D25FEA9A
:100870004E0E6D4146EB060642EAC62141EA55514D
:100880004FEAC52040EA5E504FEACE2EB4F1FD0C8F
:1008900088BFBCF5E06F1ED8BEF1004F08BF5FEA0D
:1008A000500E50F1000041EB045170BD06F00046BF
:1008B00046EA010140EA020081EA0301B4EB5C046C
:1008C000C2BFD4EB0C0541EA045170BD41F4801164
:1008D0004FF0000E013C00F3AB8014F1360FDEBF89
:1008E000002001F0004170BDC4F10004203C35DA65
:1008F0000C341BDC04F11404C4F1200500FA05F3E8
:1009000020FA04F001FA05F240EA020001F0004288
:1009100021F0004110EBD37021FA04F642EB0601FE
:100920005EEA430E08BF20EAD37070BDC4F10C0428
:10093000C4F1200500FA04F320FA05F001FA04F2EC
:1009400040EA020001F0004110EBD37041F10001D8
:100950005EEA430E08BF20EAD37070BDC4F12005E3
:1009600000FA05F24EEA020E20FA04F301FA05F24B
:1009700043EA020321FA04F001F0004121FA04F2F3
:1009800020EA020000EBD3705EEA430E08BF20EAC3
:10099000D37070BD94F0000F0FD101F000464000FD
:1009A00041EB010111F4801F08BF013CF7D041EA7F
:1009B000060195F0000F18BF704703F00046520083
:1009C00043EB030313F4801F08BF013DF7D043EA54
:1009D0000603704794EA0C0F0CEA135518BF95EA0A
:1009E0000C0F0CD050EA410618BF52EA4306D1D191
:1009F00081EA030101F000414FF0000070BD50EAB0
:100A0000410606BF1046194652EA430619D094EA39
:100A10000C0F02D150EA013613D195EA0C0F05D123
:100A200052EA03361CBF104619460AD181EA030177
:100A300001F0004141F0FE4141F470014FF000002F
:100A400070BD41F0FE4141F4780170BD70B54FF0CA
:100A5000FF0C4CF4E06C1CEA11541DBF1CEA13554A
:100A600094EA0C0F95EA0C0F00F0A7F8A4EB05042C
:100A700081EA030E52EA03354FEA013100F0888023
:100A80004FEA03334FF0805545EA131343EA1263EC
:100A90004FEA022245EA111545EA10654FEA0026A1
:100AA0000EF000419D4208BF964244F1FD0404F55A
:100AB000407402D25B084FEA3202B61A65EB0305B6
:100AC0005B084FEA32024FF480104FF4002CB6EB73
:100AD000020E75EB030E22BFB61A754640EA0C00F3
:100AE0005B084FEA3202B6EB020E75EB030E22BF33
:100AF000B61A754640EA5C005B084FEA3202B6EB74
:100B0000020E75EB030E22BFB61A754640EA9C0032
:100B10005B084FEA3202B6EB020E75EB030E22BF02
:100B2000B61A754640EADC0055EA060E18D04FEAC0
:100B3000051545EA16754FEA06164FEAC30343EA60
:100B400052734FEAC2025FEA1C1CC0D111F4801F2D
:100B50000BD141EA00014FF000004FF0004CB6E726
:100B600011F4801F04BF01430020B4F1FD0C88BFC5
:100B7000BCF5E06F3FF6AFAEB5EB030C04BFB6EBD0
:100B8000020C5FEA500C50F1000041EB045170BDC3
:100B90000EF0004E4EEA113114EB5C04C2BFD4EBF0
:100BA0000C0541EA045170BD41F480114FF0000E74
:100BB000013C90E645EA060E8DE60CEA135594EAF0
:100BC0000C0F08BF95EA0C0F3FF43BAF94EA0C0FF3
:100BD0000AD150EA01347FF434AF95EA0C0F7FF468
:100BE00025AF104619462CE795EA0C0F06D152EABC
:100BF00003353FF4FDAE1046194622E750EA4106A0
:100C000018BF52EA43067FF4C5AE50EA41047FF4B0
:100C10000DAF52EA43057FF4EBAE12E74FF0FF3C15
:100C200006E000BF4FF0010C02E000BF4FF0010CE6
:100C30004DF804CD4FEA410C7FEA6C5C4FEA430C5F
:100C400018BF7FEA6C5C1BD001B050EA410C0CBFAE
:100C500052EA430C91EA030F02BF90EA020F002010
:100C6000704710F1000F91EA030F58BF994208BF77
:100C700090422CBFD8176FEAE37040F00100704734
:100C80004FEA410C7FEA6C5C02D150EA013C07D18B
:100C90004FEA430C7FEA6C5CD6D152EA033CD3D0D6
:100CA0005DF8040B704700BF8446104662468C46D0
:100CB0001946634600E000BF01B5FFF7B7FF002803
:100CC00048BF10F1000F01BD4DF808EDFFF7F4FF2C
:100CD0000CBF012000205DF808FB00BF4DF808EDB7
:100CE000FFF7EAFF34BF012000205DF808FB00BFDA
:100CF0004DF808EDFFF7E0FF94BF012000205DF8FC
:100D000008FB00BF4DF808EDFFF7CEFF94BF0120B0
:100D100000205DF808FB00BF4DF808EDFFF7C4FFA9
:100D200034BF012000205DF808FB00BF4FEA4102FC
:100D300012F5001215D211D56FF47873B3EB62522D
:100D400012D94FEAC12343F0004343EA505311F054
:100D5000004F23FA02F018BF404270474FF00000E6
:100D6000704750EA013005D111F0004008BF6FF024
:100D7000004070474FF00000704700BF4A0011D29A
:100D800012F5001211D20DD56FF47873B3EB6252E5
:100D90000ED44FEAC12343F0004343EA505323FAF1
:100DA00002F070474FF00000704750EA013002D166
:100DB0004FF0FF3070474FF0000070474FEA41029C
:100DC000B2F1E04324BFB3F5001CDCF1FE5C0DD9A9
:100DD00001F0004C4FEAC0024CEA5070B2F1004FF3
:100DE00040EB830008BF20F00100704711F0804FF6
:100DF00021D113F13872BCBF01F00040704741F4BB
:100E000080114FEA5252C2F11802C2F1200C10FABE
:100E10000CF320FA02F018BF40F001004FEAC123A2
:100E20004FEAD32303FA0CFC40EA0C0023FA02F346
:100E30004FEA4303CCE77FEA625307D150EA01331C
:100E40001EBF4FF0FE4040F44000704701F00040EC
:100E500040F0FE4040F40000704700BF80F00040CA
:100E600002E000BF81F0004142001FBF5FEA410382
:100E700092EA030F7FEA226C7FEA236C6AD04FEA82
:100E80001262D2EB1363C1BFD218414048404140C7
:100E9000B8BF5B42192B88BF704710F0004F40F479
:100EA000000020F07F4018BF404211F0004F41F495
:100EB000000121F07F4118BF494292EA030F3FD061
:100EC000A2F1010241FA03FC10EB0C00C3F1200374
:100ED00001FA03F100F0004302D5494260EB400003
:100EE000B0F5000F13D3B0F1807F06D340084FEA6E
:100EF000310102F10102FE2A51D2B1F1004F40EB63
:100F0000C25008BF20F0010040EA030070474900CA
:100F100040EB0000013A28BFB0F5000FEDD2B0FA67
:100F200080FCACF1080CB2EB0C0200FA0CF0AABF8A
:100F300000EBC25052421843BCBFD0401843704728
:100F400092F0000F81F4000106BF80F4000001322E
:100F5000013BB5E74FEA41037FEA226C18BF7FEA05
:100F6000236C21D092EA030F04D092F0000F08BF47
:100F70000846704790EA010F1CBF0020704712F02E
:100F80007F4F04D1400028BF40F00040704712F16D
:100F900000723CBF00F50000704700F0004343F0D2
:100FA000FE4040F4000070477FEA226216BF084608
:100FB0007FEA23630146420206BF5FEA412390EACB
:100FC000010F40F4800070474FF0000304E000BFC1
:100FD00010F0004348BF40425FEA000C08BF704772
:100FE00043F0964301464FF000001CE050EA010236
:100FF00008BF70474FF000030AE000BF50EA01024B
:1010000008BF704711F0004302D5404261EB410137
:101010005FEA010C02BF84460146002043F0B6435C
:1010200008BFA3F18053A3F50003BCFA8CF2083A81
:10103000A3EBC25310DB01FA02FC634400FA02FC8A
:10104000C2F12002BCF1004F20FA02F243EB020091
:1010500008BF20F00100704702F1200201FA02FCF3
:10106000C2F1200250EA4C0021FA02F243EB0200E6
:1010700008BF20EADC7070474FF0FF0C1CEAD0522A
:101080001EBF1CEAD15392EA0C0F93EA0C0F6FD0EB
:101090001A4480EA010C400218BF5FEA41211ED0C9
:1010A0004FF0006343EA501043EA5111A0FB0131B5
:1010B0000CF00040B1F5000F3EBF490041EAD3718A
:1010C0005B0040EA010062F17F02FD2A1DD8B3F106
:1010D000004F40EBC25008BF20F00100704790F075
:1010E000000F0CF0004C08BF49024CEA502040EAC7
:1010F00051207F3AC2BFD2F1FF0340EAC25070478D
:1011000040F400004FF00003013A5DDC12F1190FCA
:10111000DCBF00F000407047C2F10002410021FA3C
:1011200002F1C2F1200200FA02FC5FEA310040F154
:10113000000053EA4C0308BF20EADC70704792F0CD
:10114000000F00F0004C02BF400010F4000F013A05
:10115000F9D040EA0C0093F0000F01F0004C02BF00
:10116000490011F4000F013BF9D041EA0C018FE76F
:101170000CEAD15392EA0C0F18BF93EA0C0F0AD075
:1011800030F0004C18BF31F0004CD8D180EA01009B
:1011900000F00040704790F0000F17BF90F0004F34
:1011A000084691F0000F91F0004F14D092EA0C0F16
:1011B00001D142020FD193EA0C0F03D14B0218BFA9
:1011C000084608D180EA010000F0004040F0FE40EF
:1011D00040F40000704740F0FE4040F4400070478B
:1011E0004FF0FF0C1CEAD0521EBF1CEAD15392EA0A
:1011F0000C0F93EA0C0F69D0A2EB030280EA010CFA
:1012000049024FEA402037D04FF0805343EA111192
:1012100043EA10130CF000408B4238BF5B0042F1F0
:101220007D024FF4000C8B4224BF5B1A40EA0C0095
:10123000B3EB510F24BFA3EB510340EA5C00B3EBC7
:10124000910F24BFA3EB910340EA9C00B3EBD10FB5
:1012500024BFA3EBD10340EADC001B0118BF5FEA07
:101260001C1CE0D1FD2A3FF650AF8B4240EBC25030
:1012700008BF20F0010070470CF0004C4CEA5020F1
:101280007F32C2BFD2F1FF0340EAC250704740F440
:1012900000004FF00003013A37E792F0000F00F032
:1012A000004C02BF400010F4000F013AF9D040EAB0
:1012B0000C0093F0000F01F0004C02BF490011F444
:1012C000000F013BF9D041EA0C0195E70CEAD1533C
:1012D00092EA0C0F08D142027FF47DAF93EA0C0F23
:1012E0007FF470AF084676E793EA0C0F04D14B0207
:1012F0003FF44CAF08466EE730F0004C18BF31F0B9
:10130000004CCAD130F000427FF45CAF31F00043B2
:101310007FF43CAF5FE700BF4FF0FF3C06E000BF4B
:101320004FF0010C02E000BF4FF0010C4DF804CD6E
:101330004FEA40024FEA41037FEA226C18BF7FEA7E
:10134000236C11D001B052EA530C18BF90EA010F80
:1013500058BFB2EB030088BFC81738BF6FEAE1700F
:1013600018BF40F0010070477FEA226C02D15FEAAB
:10137000402C05D17FEA236CE4D15FEA412CE1D017
:101380005DF8040B704700BF844608466146FFE7DE
:101390000FB5FFF7C9FF002848BF10F1000F0FBDC0
:1013A0004DF808EDFFF7F4FF0CBF012000205DF8B9
:1013B00008FB00BF4DF808EDFFF7EAFF34BF01203E
:1013C00000205DF808FB00BF4DF808EDFFF7E0FFD7
:1013D00094BF012000205DF808FB00BF4DF808ED28
:1013E000FFF7D2FF94BF012000205DF808FB00BF8B
:1013F0004DF808EDFFF7C8FF34BF012000205DF86D
:1014000008FB00BF4FEA4002B2F1FE4F0FD34FF08E
:101410009E03B3EB12620DD94FEA002343F0004361
:1014200010F0004F23FA02F018BF404270474FF00F
:101430000000704712F1610F01D1420205D110F096
:10144000004008BF6FF0004070474FF00000704749
:101450007BB972B90029BEBF00204FF0004106E001
:1014600008BF00281CBF6FF000414FF0FF3000F0B4
:1014700057B8ADF1080C6DE904CE002909DB002B4B
:101480001ADB00F04FF8DDF804E0DDE9022304B0D8
:101490007047404261EB4101002B1BDB00F042F83A
:1014A000DDF804E0DDE9022304B0404261EB4101D4
:1014B000524263EB43037047524263EB430300F035
:1014C00031F8DDF804E0DDE9022304B0404261EBCD
:1014D00041017047524263EB430300F023F8DDF80B
:1014E00004E0DDE9022304B0524263EB430370479A
:1014F00053B94AB9002908BF00281CBF4FF0FF317B
:101500004FF0FF3000F00CB8ADF1080C6DE904CEDF
:1015100000F008F8DDF804E0DDE9022304B07047CC
:10152000704700BF2DE9F0478C468E46089E154651
:1015300004461946002B40F0D080724547D9B2FAD4
:1015400082F74FB1C7F120030EFA07FCBD40BC4043
:1015500020FA03F343EA0C0C4FEA154EA8B2230C11
:10156000BCFBFEF80EFB18CC08FB00F943EA0C4369
:10157000994528D9EB1808F1FF3204D2994502D9D0
:10158000A8F102022B44A3EB0903A4B2B3FBFEFCB7
:101590000EFB1C330CFB00F044EA0344A04214D9B8
:1015A0002C190CF1FF3304D2A04202D9ACF1020392
:1015B0002C44241A43EA02401EB1FC40002334604C
:1015C0007360BDE8F0874246DDE76346F1E7002A35
:1015D00079D0B2FA82F3002B3FD01946C1F1200333
:1015E00002FA01F500FA01F42EFA03F20EFA01FEF6
:1015F00020FA03F3AFB243EA0E034FEA154EB2FBF3
:10160000FEFC0EFB1C201A0C0CFB07F842EA004201
:1016100090455AD9AA180CF1FF3004D2904502D94E
:10162000ACF102002A44A2EB08029BB2B2FBFEFC22
:101630000EFB1C220CFB07F743EA02439F4246D9EC
:10164000EB180CF1FF3204D29F4202D9ACF1020236
:101650002B44DB1B42EA004202E0AEEB0203012214
:101660004FEA154EAFB2200CB3FBFEFC0EFB1C3351
:101670000CFB07F840EA034398452AD9EB180CF114
:10168000FF3004D2984502D9ACF102002B44A3EB01
:101690000803A4B2B3FBFEFC0EFB1C330CFB07F7E4
:1016A00044EA0344A74216D92C190CF1FF3304D2A3
:1016B000A74202D9ACF102032C44E41B43EA0040E8
:1016C0000F46114678E71F2188E76046ABE7624680
:1016D000BFE76046DBE76346EFE7734506D916B917
:1016E000002108466DE7C6E9000EF9E7B3FA83F773
:1016F00087B9734501D3824207D8841A6EEB03037E
:1017000001209C461EB900215BE73846FAE7C6E98E
:10171000004CF8E7C7F1200CBB4000FA07F422FAAE
:101720000CF520FA0CF1BA401D432EFA0CF30EFA18
:1017300007FE4FEA154941EA0E011FFA85FEB3FB89
:10174000F9F809FB18300B0C08FB0EFA43EA0043CA
:101750009A4540D9EB1808F1FF3004D29A4502D9D6
:10176000A8F102002B44A3EB0A0389B2B3FBF9F8FA
:1017700009FB183308FB0EFE41EA03418E452CD9C4
:10178000691808F1FF3304D28E4502D9A8F102038B
:10179000294443EA0040A1EB0E01A0FB0298414519
:1017A000CE46434602D306D14C4504D20138B9EBAC
:1017B000020E68EB0503002EA5D0B4EB0E0261EB20
:1017C000030101FA0CFC22FA07F3F9404CEA030387
:1017D000C6E9003197E74046C5E74346D9E7000030
:1017E0002DE9F04721F00042B34F88B00446BA42D9
:1017F0000D464FEAD17632D9B04FBA4212D9C1F371
:1018000013030246034305D00B46FEF73FFE044692
:101810000D4602E0002E40F01F812046294608B008
:10182000BDE8F0878EA3D3E90023FFF775FA0746DA
:1018300028B1002008B0BDE8F04707F041B98AA3FD
:10184000D3E9002320462946FFF748FA002800F094
:101850008580384608B0BDE8F0470AF025B9984BB6
:101860009A4240F2A780974B9A4277D8964BF40061
:1018700086F0010A03EBC603AAEB060AD3E90023AC
:10188000FEF702FE914B804689462344D3E900349B
:10189000CDE90034DDE9002340464946FEF7F4FD7A
:1018A00004460D4622462B4620462946FEF7A4FF55
:1018B00006460F466EA3D3E90023FEF79DFF6EA3F5
:1018C000D3E90023FEF7E0FD32463B46FEF794FFE6
:1018D0006BA3D3E90023FEF7D9FD32463B46FEF762
:1018E0008BFF69A3D3E90023FEF7CEFD32463B46CA
:1018F000FEF782FF66A3D3E90023FEF7C7FD324659
:101900003B46FEF779FF02460B4620462946FEF786
:10191000BBFD02460B4606460F4620462946FEF70B
:101920006BFFCDE90201BAF1000F5AD100224FF04E
:10193000804330463946FEF7A7FD02460B46DDE9F7
:101940000201FFF783F822462B46FEF79DFD024673
:101950000B4600205E49FEF797FD58E75D4B204699
:10196000294603EBC6064CA3D3E90023FEF744FF48
:10197000D6E90023FEF78AFDFFF7D8F98246FEF785
:10198000D1FE06460F4646A3D3E90023FEF734FFF7
:1019900002460B4620462946FEF776FD80468946DC
:1019A0003046394640A3D3E90023FEF725FFCDE9B1
:1019B00000016FE7484B9A420ED83DA3D3E90023BC
:1019C000FEF764FD0022424BFFF7A6F938B1002272
:1019D0003F4B2046294618E74FF0000A62E782464F
:1019E00060E732463B4600204FF08041FEF74CFD59
:1019F00002460B46DDE90201FFF728F802460B46D6
:101A0000DDE90001FEF740FD42464B46FEF73CFD96
:101A100002460B4600202E49FEF736FD0B460C46CB
:101A20006FF47F7102468A4508DBCDE90423DDE9C6
:101A3000042304EB0A5314461D46EEE60AF57A7AAF
:101A4000CDE906230022DDE9060103EB0A514FF040
:101A5000B873FEF7D1FEDAE600240025DDE600BF0C
:101A6000EF39FAFE422E864051302DD5104987C0FD
:101A7000D0A4BE726937663EF16BD2C541BDBB3E94
:101A80002CDE25AF6A56113F93BDBE166CC1663F72
:101A90003E5555555555C53FFE822B654715F73FB9
:101AA0000000E0FE422EE63F763C7935EF39EA3D14
:101AB0009C7500883CE4377E412E8640FFFFEF7F17
:101AC000422ED63FB1A2F03F48C9000038C90000FD
:101AD0000000F03F58C90000FFFFEF3D000000008C
:101AE00030F0004201462DE9F84F034604D10120B1
:101AF000BDE8F84F06F0F0BF002803DABDE8F84F64
:101B000006F0F2BFB0F1FF4F03DBFFF7ADF9BDE820
:101B1000F88FB0F5000F35DA4FF09841FFF7ACFAC7
:101B20006FF018020346C3F31604DE15764B4FF030
:101B30007E517F3E2344164403F4000006EBD35647
:101B400080F07E502043FFF78DF904F10F026F4BB8
:101B500005461340002B3ED10021FFF721FC98B130
:101B6000002E00F0C8803046FFF732FA684905467B
:101B7000FFF782FA044667492846FFF77DFA0146D7
:101B80002046C2E70022CEE75DA1D1E90001FFF7C0
:101B900015F92946FFF770FA01464FF07C50FFF720
:101BA00061F9044629462846FFF766FA01462046B1
:101BB000FFF762FA04460EB921466FE03046FFF7A0
:101BC00007FA07465249FFF757FA52490646384680
:101BD000FFF752FA72E04FF08041DFF83CB1FFF7B7
:101BE00043F901462846A344FFF7FAFA81463046F6
:101BF000FFF7EEF9494680464846FFF73DFA0146B1
:101C00008246FFF739FA45490746FFF735FA444956
:101C1000FFF72AF93946FFF72FFA4249FFF724F96F
:101C20003946FFF729FA4049FFF71EF95146FFF7F9
:101C300023FA3E4982463846FFF71EFA3C49FFF731
:101C400013F93946FFF718FA3A49FFF70DF9394603
:101C5000FFF712FA01465046FFF706F9C4F557138D
:101C6000074603F5227343EA0B03002B30DD4FF0E8
:101C70007C512846FFF700FA2946FFF7FDF9014697
:101C800004463846FFF7F0F84946FFF7F5F90746EE
:101C900046B901462046FFF7E5F801462846FFF71A
:101CA000E1F834E71A494046FFF7E6F919490646D4
:101CB0004046FFF7E1F93946FFF7D6F801462046DE
:101CC000FFF7D0F82946FFF7CDF801463046E6E7A2
:101CD00001462846FFF7C6F84946FFF7CDF9044606
:101CE000002E3FF469AF0A494046FFF7C5F909499C
:101CF000064640466CE7002009E700BFAFF30080CE
:101D0000555555555555D53F20FB4A00F0FF7F00EE
:101D10008071313FD1F71737305CCFFF9788173E7E
:101D200025333A3E2549923EABAA2A3F4FD01C3E6E
:101D3000298E633ECDCCCC3E38B5144D2B7813B1F3
:101D4000012B1AD038BD124807F041F94FF4D011D9
:101D5000104806F0D2FE01230446284641F66A02E6
:101D600000F8083B002304F023FE002CEADA2146A9
:101D7000BDE83840084806F04FBC0021054806F091
:101D8000D7FE022304462B70EFE700BFC8000020F7
:101D900048BE000070C90000A0CD000010B54FF48F
:101DA000B0110D4806F0A9FE041E05DA21460B48C5
:101DB00006F032FC204610BD4FF4B011084806F082
:101DC0009CFE041EF2DB40F635420023054804F079
:101DD000B7FD0024EEE700BF68C90000A0CD0000F9
:101DE00070C90000D000002010B54368124A23F0EB
:101DF000FF03934215D18468012C1BD10F4809F0D1
:101E00000DF8B8B121460E4806F092FE002140F6CA
:101E1000354009F019FA00210948BDE8104006F0E4
:101E200087BE084A934205D181680748003918BF28
:101E30000121F2E710BD00BF00010B0050BC000003
:101E400068C900000001020070C9000008B50B4914
:101E50000B4806F0E1FB0B4A0B490C4806F0DCFB93
:101E60004FF4D0110A4806F048FE0A4807F0AFF8D0
:101E7000084807F0ACF8002008BD00BFBECD000048
:101E8000DECD0000F2CD0000FBCD000007CE00004B
:101E900078C90000B8BD0000014B1B68184700BF9F
:101EA00068040020014B1860704700BF68040020E0
:101EB00030B5044685B00D4610220021684609F071
:101EC00076FD02238DF80230044B2A4621466846EF
:101ED000019306F0B3FB05B030BD00BF991E0000B2
:101EE0002DE9F047058B0446280717460CD5012934
:101EF0000CBF45F0100545F02005258387F31188B8
:101F0000BFF36F8FBDE8F087022905F0070540F0A9
:101F10009480204606F0C2FE052864D801A353F839
:101F200020F000BFFD1E00003B200000E71F000066
:101F3000A91F0000C31F0000D51F000001F0070308
:101F40005A1F012A1FD8002221F00701062BD4F8BE
:101F5000008089B2C4E9002209D1434603E0628BC4
:101F6000013262831B68002BF9D141F00201204647
:101F7000218306F093FE4FF0000900286DD041F058
:101F80002001218369E0042B0AD121F0070189B2E5
:101F90002046218306F082FE10B141F0200121830A
:101FA0004FF00008C14658E02369D3F80090238B16
:101FB00023F0070343F006034FF00008238346464F
:101FC0004BE02369D3F80490238B23F0070343F0FD
:101FD0000403F1E72369D3F80890238B23F0070368
:101FE00043F00503E8E74FF00008C146E7E70122A8
:101FF00043F00803238387F31188BFF36F8F002A10
:102000003BD1B8F1000F4AD1B9F1000F02D0204600
:102010002C49C847EFF31187202383F31288BFF3BD
:102020006F8F238B23F008039BB22383D9063FD500
:1020300023F01002228303F007056669218B002E2E
:10204000BFF67CAF00239946D4F8008021F0070149
:10205000C4E9003341F001012183238B03F0070A17
:10206000AA4502D0A268002AC1D1B8F1000F02D15E
:10207000B9F1000FDAD00022BAE7A1680029C0D078
:102080000D680029BDD03346524620464F68B847F8
:102090001DB12B6829461D46F3E72B46FAE741465A
:1020A000334652462046D8F8008006F023FEA8E7C3
:1020B0009A067FF523AF23F02002228303F0070561
:1020C00027E700BF218D0000014B0360002070470F
:1020D00080C9000070B5046A0D469CB31E4A23797E
:1020E000565CB34231D01D4A525C9A4230D1A3684B
:1020F0009847002810DA022D0CD0032D0BD110F1D7
:10210000860F07D0D4E8EF3F43F00203C4E8E23F74
:10211000002AF6E7267170BD022D267101D000203D
:10212000F9E7D4E8EF3F23F00403C4E8E23F002AD4
:10213000F7D1D4E8EF3F23F00203C4E8E23F002ADE
:10214000EDD0F6E76FF05700E5E76FF07700E2E7D4
:102150006FF08500DFE700BFCED30000CAD30000D8
:10216000024B187880F00100704700BFD4120020A5
:10217000F8B5056A0646002D5ED00521284606F012
:10218000FDFE00285BD1304606F09CFE0446002888
:1021900057D10821306A06F0F1FEE0B1356AEFF35D
:1021A0001187202383F31288BFF36F8F297931B908
:1021B0003046AB689847041E07DB01232B712B6860
:1021C00043F020032B600023EB6087F31188BFF3FB
:1021D0006F8F2046F8BDFFF7C3FF38B94FF0FF32CD
:1021E0004FF0FF3305F1180006F0CEFE6B692BB9F6
:1021F00015496E6105F1380008F03EFF2979C9B92B
:10220000AB6868699847041E0BDB01232B71002320
:10221000EB60D5E8EF3F43F02003C5E8E23F002A3A
:10222000F7D1FFF79DFF0028D3D105F1180006F084
:10223000ADFECEE70024EAE76FF08504C9E700248D
:10224000C7E76FF00F04C4E78F92000008B5044899
:1022500006F0FCFC034806F0F9FC002008BD00BFB6
:102260001DCE00005BCE000080B505460E46174629
:10227000984604F089FF034600F028FC0446DFF886
:102280001890424649F8003039463046A84754F87D
:10229000090000F0AFFB00BF0800000008B50348CC
:1022A000034A0021121A07F051F808BD2807002040
:1022B000D8120020074808B5074A0849121A07F043
:1022C00047F8BDE808400648064A0749121A07F0D1
:1022D0003FB800BF60000020280700200CD4000099
:1022E00060000020600000200CD4000038B50546D6
:1022F0000C4699B1D1E901230F48096806F0A6FC04
:10230000D4E90423E1680D4806F0A0FCE1690C481B
:1023100006F09CFCA1690B4806F098FC012D05D144
:10232000EFF305810848103906F090FC2146284655
:10233000BDE8384003F02CBE89CE0000B9CE0000C5
:10234000E9CE0000F9CE000028CF000030BFFFF733
:10235000FDBF00BF2DE9F04105460B4EDFF82C8094
:10236000324606EB0807CC1B2046094909F012FB50
:10237000A01942460021083C09F019FBC5F8AC4001
:1023800007F10800BDE8F081000000000400000033
:1023900010C9000010B5204C204806F057FCA36A75
:1023A000990137D51E4806F051FC1E20A36ADA01B8
:1023B00003D51C4806F04AFC1F20174CA36ADB0219
:1023C00003D5194806F042FC0220A36A1C0303D57A
:1023D000164806F03BFC21200F4CA36A590303D595
:1023E000134806F033FC2220A36A9A0303D5114850
:1023F00006F02CFC2320084CA36ADB0303D50E480F
:1024000006F024FC2420A36A6FEA03436FEA134317
:10241000A36210BD1D20C9E700ED00E03CCF000025
:1024200055CF000069CF000084CF0000AFCF00007F
:10243000CECF0000F4CF00000FD0000070B5244CC8
:10244000064624480D4606F001FCA36AD90435D59A
:10245000214806F0FBFB1720A36A1A0503D51F4885
:1024600006F0F4FB18201A4CA36A9B050FD51C48F4
:1024700006F0ECFBA16BA36A180407D5194806F017
:10248000E5FB1EB1A36A23F40043A3621920104C9C
:10249000A36A590503D5144806F0D8FB1A20A36A8D
:1024A000DA050DD5114806F0D1FB1B20084A936AC6
:1024B00043F47F43936200232B7070BD1620CBE75B
:1024C000A36A9B04F2D50A4806F0C0FB1C20EDE786
:1024D00000ED00E03BD0000052D0000064D00000CE
:1024E00078D0000092D00000A8D00000C4D0000036
:1024F000DDD0000070B5264C064626480D4606F095
:10250000A5FBA36AD80640D5234806F09FFB1120FF
:10251000A36A190703D5214806F098FB12201C4C2A
:10252000A36A9A070FD51E4806F090FB616BA36A59
:102530001B0607D51B4806F089FB1EB1A36A23F0D2
:102540008003A3621320124CA36ADE0703D516484A
:1025500006F07CFB1420A36A9C0603D5134806F002
:1025600075FB15200A4B9A6AD10658BF9A6A9A6A77
:10257000920642BF5A6A22F400525A629A6A42F0A4
:10258000FF029A6200232B7070BD1020C0E700BFCD
:1025900000ED00E00DD1000024D1000064D0000067
:1025A00058D1000071D1000088D10000DDD00000BA
:1025B000F0B5614B0446586800258BB0C0F30803A2
:1025C00085F31188BFF36F8F02F07F46B6F17F4F1E
:1025D00006D102F00C06082E0CD1584806F036FB46
:1025E000574806F033FB002108460BB0BDE8F04029
:1025F000FFF77CBE16074CBF0C460125002CEFD020
:102600000026DA1E8DF80760092A00F28580DFE8CF
:1026100002F005797D75838383838381494806F0C1
:1026200015FB8DF80760444EF36A9A0704D54648B7
:1026300006F00CFB00232AE0F36A002B01DA434882
:10264000F6E7F36A5B00F5D5414806F0FFFA7369D7
:10265000A26943F480737361BFF34F8FBFF36F8F31
:1026600032F8023C726922F480727261BFF34F8FBC
:10267000BFF36F8F03F47F42B2F55F4F26D1DBB219
:10268000022B23D12168334806F0E0FA23689DF835
:102690000720CAB902AE04F12007324620686168FB
:1026A000083403C2BC421646F7D1099A002D3FD028
:1026B000C2F3080121B96FEA52226FEA422209925D
:1026C000184602A9FFF712FE0BB0F0BD1A4B9A6A2A
:1026D000D2B22AB101200DF10701FFF70BFF0FE085
:1026E0009A6A12F47F4F05D001200DF10701FFF720
:1026F000A5FE05E09B6AB3F5803F9BD3FFF74AFE3A
:102700000346C4E700200DF10701E6E700200DF1C4
:102710000701ECE710488BE7A3F110020F4B10F410
:10272000F87F0F490F4808BF194606F08FFA81E776
:102730006FF30802C3E700BF00ED00E0D6D1000050
:1027400002D200003FD2000057D2000079D2000030
:1027500088D20000A8D20000C5D20000A8D1000095
:10276000BDD10000EAD20000064B5A6942F01002C7
:102770005A615A6942F480625A615A6922F0080229
:102780005A61704700ED00E0EFF30880EFF3098134
:1027900001B57246FFF70CFF01BD00BF002080F3BA
:1027A0001488BFF36F8F002080F30A8880F30B88B2
:1027B000104880F3088800200F49087002F08CF957
:1027C00000200E490860BFF34F8F00F02DF8202045
:1027D00080F311880A484FF40061401880F309889B
:1027E000EFF314800221084380F31488BFF36F8F46
:1027F00000F098F818240020D412002094ED00E096
:10280000D8160020002318460649D1F89020C2F3BC
:102810000722934200DB7047C1F89830C1F8A0004E
:102820000133F6E700ED00E010B572B6002484F342
:102830001388FFF7E7FF23464FF0FF300C4A03F100
:1028400020010133102B42F82100F8D100234FF072
:10285000FF30074A03F160010133102B42F82100D9
:10286000F8D162B6BFF34F8FBFF36F8F10BD00BFBB
:1028700000E100E01EF0040F0CBFEFF30880EFF35F
:102880000980816911F8021C0229FFD001B5724646
:1028900006F060FD01BD00BF00B2002807DB012388
:1028A0004109034A00F01F00834042F8213070477D
:1028B00000E100E000B200280CDB012206494309D8
:1028C00000F01F008240203341F82320BFF34F8FD8
:1028D000BFF36F8F704700BF00E100E000B2002837
:1028E00001F10101ACBF00F16040064B4FEA41111C
:1028F000C9B2ABBF00F5614000F00F0080F80013D3
:102900001954704714ED00E0044B054A23F07F038F
:102910009360BFF34F8FBFF36F8F704700000000CD
:1029200000ED00E008B5FFF7EFFF074AD2F8883066
:1029300023F47003C2F88830FFF7B0FCFFF7BAFC4D
:1029400000F0A2F803F0F6FB00ED00E042F8203CB6
:10295000009B0B4942F81C3C019B21F0010142F80D
:10296000183C029B42F8081C42F8143C4FF080735C
:1029700042F8043C0023203A0265C0F8B0307047AA
:102980006922000000B50E4B15469860D0F8AC20C7
:102990000C4B0E461A60D0F89C3083F30B882C4603
:1029A00086F309880020044B984720460021002226
:1029B0000023024C2047000083930000692200009E
:1029C000040E0020000C00201022014B1A617047F9
:1029D00000ED00E0054B5A699B689A421FBF044A0C
:1029E000536843F080535360704700BF040E0020CB
:1029F00000ED00E0084B9B6883420BD1EFF30583A9
:102A000043B1064B5A6842F080525A605A6A22F427
:102A100000425A6208F059BB040E002000ED00E0AD
:102A200016498A684FF030001044EFF3098C80E8B3
:102A3000F01F202080F31288BFF36F8F104F4FF0EC
:102A400000664A698A603E60D2F8AC000D4C206096
:102A5000D2F8B0000023C2F8B03080F3118802F140
:102A6000300090E8F01F8CF3098802F1000004B5F3
:102A700006F07FFCBDE8044070470000040E002013
:102A800004ED00E0000C00200023202040F20F1293
:102A900010B5044CE1180133934281F80003F9D1D9
:102AA00010BD00BF00E100E008B5EFF30583064A62
:102AB000103B02EBC30152F8330049688847BDE878
:102AC0000840FFF787BF00BF6CBE000001480068E8
:102AD00070470000000C00201FB50121094B0A4A75
:102AE0000A4800F0F7F80023064A0393084B012137
:102AF000019301A8D31A029300F0F6F805B05DF82F
:102B000004FB00BF000004200000002080C900007A
:102B1000280700200A7A0B6810B562F304031C46EC
:102B2000CB68520923F01F0343EA4203044A43F0EF
:102B30000103C2F89800C2F89C40C2F8A03010BD52
:102B400000ED00E010B5074BD3F89030C3F3072336
:102B5000013B984202D8FFF7DDFF10BD6FF0150072
:102B6000FBE700BF00ED00E02DE9F04F0F461446F3
:102B700006464FF000084B4D85B0B84580F28E8078
:102B8000D6F80490B9F1000F35D0B9F11F0F40F21B
:102B9000838019F01F0F7FD1D6F800A01AF01F0F05
:102BA0007AD1504606F010FC834609EB0A00013842
:102BB00006F00AFC83456FD11BF1160F6CD05C4503
:102BC0006ADDC5F898B0D5F89C10C5F898B0D5F86E
:102BD000A03021F01F0143F01F0AD6E900321A4449
:102BE000994202F1FF391BD1CA4508D131465FFA3B
:102BF0008BF006F0F2FB08F101080C36BDE7314618
:102C0000C5F898B0D5F89C30E0B263F30402C5F87B
:102C10009C2006F0E2FB10F1160F3DD0441CEAE7C1
:102C2000C5F898B0D5F8A020013B23F01F0302F0AF
:102C30001F021343CA453146E0B2C5F8A030E8D0C0
:102C400006F0CBFB10F1160F26D0C5F898B0D5F8DA
:102C50009C209DF808300AF1FF3A62F304038DF8D6
:102C60000830D5F8A0309DF808205B0863F34712C0
:102C70008DF80820D6E900321344009323F01F0397
:102C80005344A3EB0903013023F01F036946C0B28C
:102C90000393FFF757FFBEE76FF01504204605B01A
:102CA000BDE8F08F00ED00E00522044BC3F894204E
:102CB000BFF34F8FBFF36F8F704700BF00ED00E091
:102CC000BFF35F8F0022024BC3F89420704700BF10
:102CD00000ED00E010B5034C2278FFF745FF2070AF
:102CE00010BD00BFCA1100202DE9F74F294D8A46BB
:102CF00006464FF00008AB46274FD0451BDAD6F802
:102D00000490B9F1000F3FD031680846019106F0F8
:102D10005BFB0199044609EB0100013806F054FB06
:102D200084424FF014021D4B08D002FB08F36FF0F1
:102D300015024BF8032003B0BDE8F08F14F1160F15
:102D40002C60F8D01978A142F5DD02FB08B0C7F875
:102D50009840C7F89840D7F89C4000F10801007BE4
:102D600064F304000871D7F8A0000C79400860F300
:102D700047140C71D7F89C1021F01F016960D7F837
:102D8000A01021F01F01296108F1010814350C364B
:102D9000B3E700BF040C002000ED00E0CA110020E2
:102DA000F0B55349534DD1F890302C68C3F3072345
:102DB0009C4287B000F299800020FFF781FF4E4BC4
:102DC000C1F8C030844216D14C4D01A82C70FFF7D9
:102DD0007BF9002607464A4CB74213D100202B78D6
:102DE0004349D1F89020C2F30722934277DBFFF7E3
:102DF0005BFF002046E0696801EB0011FFF78AFEE7
:102E00000130DFE70199300101EB0613DA68224057
:102E1000B2F1807F52D00AD8B2F5001F34D0B2F59B
:102E2000800F3ED0B2F5801F12D00136D4E7B2F148
:102E3000006F43D0B2F1805FF7D15A689B680958A0
:102E4000013B22F01F00034423F01F03012032E066
:102E50005A689B680958013B22F01F000344012077
:102E6000844623F01F0340EA4C10CDE902218DF87F
:102E7000100002A928780593FFF764FE00282ADADB
:102E80006FF0150007B0F0BD5A689B680958013B08
:102E900022F01F0003444FF0020C012023F01F0317
:102EA000E1E75A689B680958013B22F01F00034480
:102EB000062023F01F034FF0000CD4E75A689B68EC
:102EC0000958013B22F01F0003444FF0030C01207E
:102ED00023F01F03C7E72B7801332B70A5E7C1F858
:102EE0009830C1F8A00001337BE74FF0FF30C9E70D
:102EF00000ED00E08CC90000AAFF4400CA110020C8
:102F00000000F0FF08B5024B1B689847002008BD81
:102F1000180C0020034B044A1860937843F0020316
:102F200093707047180C00206C04002008B5064907
:102F3000064821F00701C1F1005202F5802205F098
:102F400040FE002008BD00BFDF2800201C0C002030
:102F500008B5244A244B1A6000F0B0F84FF47A61A7
:102F60002248D0F82436C3F30802C3F309434B4385
:102F700082F480721E49883201FB02334FF4FA2139
:102F80005B00B3FBF1F201FB12331A49B3F57A3F50
:102F900028BF0132C1F80429D0F820364FF47A60F6
:102FA000C3F30802C3F30943434342F21C5082F4C3
:102FB000807202F2172200FB02334FF47A701B0A70
:102FC000B3FBF0F200FB12330020B3F5FA7F4FF0B1
:102FD000010328BF0132C1F81C27C1F80009C1F85C
:102FE000003608BD0020A107CC05002000C0FF006E
:102FF000F82A00800000125048B1054B054A1B68B2
:10300000B3FBF2F35843044B43F0010318477047F6
:10301000CC05002040420F0020C9000030B50D4D06
:1030200085B04FF0FF324FF0FF330B4801A903F09A
:1030300059F90028F5D1094CAC42F2D2236813B1FA
:10304000019A934203D1D4E9013101A898470C3485
:10305000F2E700BF10C90000E806002004C9000024
:10306000F0B517461E4685B001909DF82800DDE9B1
:103070000C5423462C432A468DF808008DF809107D
:10308000ADF80A70039608D0FFF720FD0849D1F883
:10309000B840084909588C4201D10022134606481D
:1030A00001A907F009FF00EAE07005B0F0BD00BF1C
:1030B000100A002008000000E80600200122024B50
:1030C000C3F80424704700BF002008E038B5044C62
:1030D000044DAC4200D338BD54F8043B9847F8E7A0
:1030E000D4DA0000DCDA000008B5084B1A785AB9C7
:1030F000012140F205101970FFF7F0FBBDE8084010
:1031000040F20510FFF7C8BB08BD00BFCB1100207F
:103110001FB5002201236C46CDE902230749802315
:103120006A46CDE9004406F0ADF928B943F60952E4
:103130000023684603F032FA04B010BD5B9400002F
:1031400070B50A4605460C464023064950F8040C63
:1031500006F098F9014620B128462346BDE87040A4
:10316000184770BD1794000010B504460369186035
:10317000FFF7BAFF20690549043005F0DEFD00289D
:10318000A1BF0122236900209A6210BDB8C90000C6
:1031900001220B4BD3E8EF1F002903D1C3E8E02F36
:1031A0000028F7D10AD1074A074B002153600323B7
:1031B000064893608368D160DB691847704700BF99
:1031C000400C0020280C00209932000008BC0000B0
:1031D00007B5002200230948CDE90023084A00234F
:1031E00004F088FA0748002183681B6A9847002288
:1031F000054B1A6003B05DF804FB00BF60060020B9
:1032000048E8010008BC0000400C002073B51D4DCB
:103210004E21AE682846F36898471B4C70B10023D6
:103220001A462370217809B1012A1FDD174A13803D
:1032300001F05CFD0123237002B070BD0C216A46D1
:103240002846336998470028E9D1114A019B93FB2E
:10325000F2F3009A03EB82030C4A1BB2B2F900208E
:103260009A1A002AB8BF524212B2DBE7094A013962
:10327000136821700133136002B0BDE87040FFF79E
:10328000A7BF00BFDCBD0000CC110020BC11002096
:1032900090D00300380C002008B5074807F0BEFDA9
:1032A00028B901F023FD0122044B1A7008BD04481F
:1032B000BDE8084003F0D4BADCBD0000CC1100200A
:1032C0006C0500200023024A1360024A1360704715
:1032D0003C0C0020380C00200022024B1A70FFF733
:1032E00057BF00BFCC110020014804F029BA00BF2D
:1032F00060060020024A136801331360FFF768BFBD
:103300003C0C002010B50446064801F09FFC30B983
:10331000FFF7D8FF2046BDE81040FFF725BF6FF04C
:10332000040010BD29330000022808B502D003288C
:1033300007D008BDFFF7D0FFBDE80840034806F0FE
:10334000FCB8BDE80840FFF7D5BF00BFE4BB0000F4
:10335000F8B5012206462449D1E8EF3FC1E8E02F45
:103360000028F9D133B9214921484B60CB608A60EC
:1033700005F0F6FC731E012B2AD807F0A0FE0446C8
:1033800048B1EFF31185202383F31288BFF36F8FC9
:103390000124184F0DE0184B1B78002BF1D00422AC
:1033A000144B0546C3F80823F3E794B1284605F00B
:1033B000FCFFD7F84C24D7F84C34D203F5D59B0743
:1033C00001D0012EF1D14CB185F31188BFF36F8F7D
:1033D000F8BD0021202007F037FFEAE70422054B63
:1033E000C3F80423F4E700BF540C0020440C002071
:1033F0005C0C002000E01050D412002010B5EFF358
:103400001184202383F31288BFF36F8F064A136859
:1034100023F00201DB07116001D407F0E1F984F326
:103420001188BFF36F8F10BDB00C002010B504469B
:10343000054801F0E1FC20B92046BDE81040FFF747
:1034400093BE6FF0040010BD4D340000042806D177
:10345000034B9B6A5B0702D1024806F06EB87047C7
:10346000840C002008BC000010B5EFF31184202369
:1034700083F31288BFF36F8F0F4A136843F0020182
:1034800013F00103116009D00C4BD3F80C3413F482
:10349000803303D00A4805F0E3FF012384F3118849
:1034A000BFF36F8F23B1BDE81040064806F045B862
:1034B000BDE8104001F0AEBCB00C002000E01050A0
:1034C000AC0C002008BC000008B5074807F0A6FCBB
:1034D00038B10648FFF71EFD0448FEF7E3FC002064
:1034E00008BD6FF01200FBE7BCBC0000F134000027
:1034F00038B50D4D0446284605F069FD002810DB5F
:103500000A2C04D1AB680D2128465B689847AB684C
:1035100005485B68E1B2984720220023024805F085
:10352000F2FE204638BD00BFBCBC000070B5466846
:103530000546B068C0B107F028FB0146A0B9B068E5
:1035400001F0CEFD0446A8B902460C49B06807F068
:1035500006FB22460121DB20FFF7C0F922460121AC
:1035600040F20D10FFF7BAF92846BDE87040044953
:1035700005F0BBBC6FF0040070BD00BF0137000058
:10358000139600002DE9F04340F206354768D00657
:1035900048BF4FF0030C3B7C02EA050558BFC2F35D
:1035A000401C87B001F01F06B5F5837F144646EA3C
:1035B00043168DF803C045D00DD8062D44D005D84C
:1035C000A5B1022D12D06FF0150038E0B5F5807F5F
:1035D000F9D101250AE040F20222954236D0B5F534
:1035E000407F35D0B5F5007FEDD10425220331D5DC
:1035F00001237A688B405360B86890BB5F2E06F059
:103600001F034FEA561175D83C4A52F82120C4F3E3
:10361000004102EB8302D2F8803081F00101C4F353
:10362000404423F4706344EA410423F00F031C4335
:1036300044EA8C0444EA0524C2F88040002007B024
:10364000BDE8F0830925D1E70825CFE70625CDE7BA
:103650000525CBE7630341BF01237A688B40936064
:10366000CAE731460DF1020207F07CFA14F4403F3C
:1036700080460CD13146B86807F08DFAB8F1000FDA
:10368000DCD19DF80210B86801F062FDD6E74FF07A
:10369000000901ABCDE90199CDE90439CDF80C90D1
:1036A0003146B86803AA07F0A6F94845C6DB14F40A
:1036B000003314D09DF80330C4F3004484F00104B7
:1036C0008DF80E308DF80C508DF80D404B4631467C
:1036D000B86803AA01F08EFC0028CFDAAEE7CDE986
:1036E00004330DF1030303933146B86803AA07F0CE
:1036F00082F9F1E7203350F82330FFDED4C900000F
:103700004209022A034670B503D0012A18D0CAB173
:1037100070BD0E4E326951680029F9D0012503F0C1
:103720001F030C689D400029F2D08A682A4002D00D
:1037300030464B6898473CB1236821461C46F2E767
:10374000034EE7E7034EE5E72346F6E774BC0000C7
:1037500050BC00002CBC0000F0B544681646A068C0
:10376000227C01F01F0587B045EA421500286CD085
:10377000B6F5001F04D1294607F05FFA002055E096
:103780006268607CB6F5800F50624FF0000001AABD
:103790000190506039D1B3F1007F14BF0523042399
:1037A0008DF804300023CDE904230393E3680DF181
:1037B000030723FA01F111F0010139D1B6F1A07F1D
:1037C00036D105F01F035F2D4FEA551003F120039A
:1037D0003ED8214A52F8202052F82330DB0727D464
:1037E0003A462946A06807F0BDF9163018D002976E
:1037F0002946A06803AA07F0FEF8002816DB01227C
:103800002946A06807F0C9F9B8E7B3F1C06F05D041
:10381000B3F1007F14BF01230223C1E70323BFE7F5
:103820003946A06801F09EFC0028E0DA07B0F0BD40
:103830003A462946A06807F095F90028D8D19DF8A6
:103840000310A06801F084FCD2E76FF08500EDE77B
:1038500051F82330FFDE00BFD4C900002DE9F0414C
:103860001A4807F0DBFA70B30025DFF86080184CC7
:10387000D8F80870D8F8106021786368DA0207D5A4
:1038800013F4402F1EBF43F3000202F440225340C2
:103890004FF0010C306823F480120CFA01FCDB07B6
:1038A0004CBF40EA0C0020EA0C0030603B68404608
:1038B0009847002805DB0135032D04F10804DBD10E
:1038C0000020BDE8F0816FF01200FAE750BC000064
:1038D0001CCA0000044B054A01219362044AC72018
:1038E0001A600022FEF7FABFD80C002090050020D5
:1038F00000700C5038B504464568AB699847012103
:10390000E86905F075FF234629462A69A86A07F089
:103910002DFA002805DB2046BDE83840024905F0B5
:10392000E4BA6FF0040038BD0F990000034610B4EC
:103930000C46DA88006802F0400219792243836855
:103940009C6934B1054BA446134010BC02F0B07220
:1039500060476FF0570010BC704700BF4000000682
:10396000F0B550F8185C85B06B682A69DC68D2E85D
:10397000AF2F012A22D06B6818389E68104A041BAA
:10398000E11001FB02663046DF6805F0E9FF031E27
:1039900014DB3A1992F910108B420FD04FF0FF3020
:1039A0004FF0FF3113743289CDE902010121003B50
:1039B00018BF012328460091FFF752FB05B0F0BD68
:1039C000ACAAAAAA2DE9F74F44680646E7684FF06B
:1039D000000818373D464FF00C0B6368434519DC6F
:1039E000637D8BB140F2E730002147F61225246851
:1039F0004FF47A720023E4FB0501FDF779FD0246DE
:103A00000B46384602F0D4FF3046FEF7B1FB00EA21
:103A1000E07045E00BFB08FAA26852F80A0002EBDE
:103A20000A09019207F0FAF900283CD0019A99F8A6
:103A3000041052F80A00B9F8062042F4803205F06A
:103A400074FF68BB45F8186C2846216907F014FB21
:103A5000627D1AB108F101084835BEE70123A1686B
:103A600001EB0A0999F8042003FA02F2114B45E927
:103A7000043251F80A00A5F114018368DB69ABB187
:103A80000122984700280BDB484605F069FF4FF0FC
:103A9000E86105F8080C4846FFF748FF0028D9DA26
:103AA00003B0BDE8F08F6FF01200F9E76FF0570038
:103AB000F6E700BF8B9900002DE9F0414568044608
:103AC0000669286807F0AAF918B96FF01200BDE876
:103AD000F081304607F0FFF97461AB68BBB904228E
:103AE0000B2120466B7C06F027F80028EFDB06222E
:103AF0000B212046AB7C06F01FF80028E7DB0123F2
:103B00002046BDE8F0411A460B2106F015B8052302
:103B1000062120462A7C06F00FF80028D7DBA8688B
:103B200007F07CF90028D0D0B5F80EE0A868297B12
:103B30004EF480320127D0F810C01EF0010FDCF8DF
:103B4000003007FA01F714BF3B43BB43D0F80880AD
:103B5000CCF80030D8F8003098470028B7DB0127B0
:103B60002B7B1A4A07FA03F3C6E90723A86806F174
:103B700018018368DB6913B96FF05700A7E73A466D
:103B800098470028A3DB124BB362EB89A868297B16
:103B900003F0400386680269B669002EECD0126813
:103BA0008F4017420CBF43F0B86383F0707323F06B
:103BB000794323F47F0323F47F434FF0A07223F073
:103BC000BF03B04700288ADA81E700BFEB9A000004
:103BD000D53B0000262300222DE9F04F044650F883
:103BE000100C91B0D0F804901146009306AB05F08C
:103BF00080FF002805DA204602F032FE11B0BDE851
:103C0000F08F0026234F97F8008097F801A008F165
:103C100040036B4413F8273C1AEA030F13D02169C1
:103C200031B1012354F8100C0D6803FA06FB11BBE7
:103C300008F101025346002154F8100CD2B205F0ED
:103C40007BFF0028D7DB01360E2E07F10207DAD101
:103C5000D9F8080099F80C50836805A95B680669D3
:103C600098470028C7D1059B32685A400123AB40D2
:103C70001A42C3D0BFE78A681BEA020203D04B682E
:103C80000390984703981DB12B6829461D46CEE73F
:103C90002B46FAE7D2D30000036803F01F025F2B24
:103CA00002604FEA53129ABF024B53F822000020E1
:103CB000704700BFA4CA00002DE9F04F16468046A9
:103CC00040F2FF1A00EB81094E4985B0C14503D18E
:103CD000002005B0BDE8F08FD8F80020C2F3C32360
:103CE000082BC2F3080400F28A804748544508BFF5
:103CF0004FF0FF34B2F1506FC55C4FEA12630AD245
:103D00000C2B0CD8DFE803F00E1E5A572252570B2B
:103D10000B0B0B5D6700382B60D04E2B4ED06FF035
:103D20008500D6E7C6F80446621C3CD003A803947D
:103D3000FFF7B2FF0123039A9B4603FA02F21F46E4
:103D4000426012E0C6F80C46002740E04FF0000B3E
:103D5000C6F80046601C26D0012703A80394FFF78D
:103D60009BFF039A07FA02F28260D8F8002003A8AA
:103D7000130444BF4FF0010B002701920394FFF797
:103D80008BFF039C019A00EB8400D0F88040C2F3C3
:103D900041222D0245EA82053D430C40254345EA78
:103DA0004B05C0F8805008F104088FE74FF0010B75
:103DB000C6F80446CEE7C6F80846C5E7C6F810467A
:103DC000B2E7C6F80046002DBED100270825631CC7
:103DD000E9D0BB46C9E7C6F80446F4E703A8039454
:103DE000FFF75AFF039B012700EB8300D0F88030D8
:103DF00023F0E04343F08043C0F88030E7E76FF002
:103E0000150066E7F0F0FCFFEED3000003460A461B
:103E1000F0B41979DB88006813430125094A066963
:103E20009A43346808BF83F440238D4023F4801202
:103E3000DB0787684CBF2C43AC4334603B68F0BC65
:103E4000184700BF0100100073B5456804460669B5
:103E5000286806F0E3FFB0B1EA6868461F322CBF5D
:103E600001230023520942EAC362002307F078FAD3
:103E7000DDE9002320460649C6E9002302B0BDE87B
:103E8000704005F032B86FF0120002B070BD00BF94
:103E9000953E00000023F0B585B004460E46CDE9FE
:103EA00002034568076902F069FE00284CD0032E22
:103EB0004AD8DFE806F0240247416846D7E90023E4
:103EC00007F073FADDE9000107F0BEF90121284689
:103ED00005F0B3FEAB681F332CBF01210021580948
:103EE00040EAC160490907F0AFF9032320461849A9
:103EF00002AA8DF80C3006F09CFF002026E0022379
:103F000002AA134920468DF80C3006F092FF0021DA
:103F1000284605F092FEEA6868461F322CBF01234E
:103F20000023520942EAC362002307F019FADDE9CF
:103F30000023C7E90023E0E74FF4B0112846FFF75C
:103F400065FFDAE70021F9E76FF0850005B0F0BD05
:103F5000239C000017289FBF054B584300F5742091
:103F600000F510709ABF086000206FF015007047D0
:103F7000A086010010B5134CA1421DDD124B9842E2
:103F80001ADCA04204DC00236FF02100138010BD76
:103F9000994201DD1723F7E76FF43A63A0F55B2040
:103FA00018440A4BB0FBF3F01080584300F574201E
:103FB00000F51070884202D96FF01500E7E7002085
:103FC000E5E700BF3F420F00A05A3200A086010083
:103FD000F7B5284E0C4673783178054619431746D5
:103FE0000BD07378022F327803F00F030FD0032F1A
:103FF0002CD06FF0850003B0F0BD02230093262281
:104000003346806A05F075FD0028EADAF3E795F893
:104010002C1001290FD1012A01D80CD15BB1012349
:10402000A340DBB2009308220221A86A05F0B6FD86
:1040300000280FDADFE7012304F108020821A86A4B
:10404000D2B203B0BDE8F04005F076BD95F82C1073
:10405000012903D0002304F10802EFE7012A02D866
:10406000F8D1002BF6D00123A340DBB2009300234C
:10407000D9E700BFCD1200200122014B1A60704722
:1040800000700D500C2903690BD15B6A0649074883
:104090004B4393FBF0F100FB1133116000205360A0
:1040A00070476FF08500704790D0030040420F00CA
:1040B0000022044B0069C3F80021D3F8003102F05C
:1040C00037BA00BF00700D507FB50569AB6A002B91
:1040D00030D04E2901D00C292FD105F110064FF018
:1040E000FF324FF0FF33304602F060F9144B0024EA
:1040F00001930323A86A0394029383686A462146C6
:10410000DB6998474FF0FF324FF0FF33284602F04B
:1041100045FAA86A214683681B6A9847094BD3F879
:1041200008256A6201225A60304602F0B1F9204641
:1041300004B070BD6FF00A00FAE76FF08500F7E792
:104140007940000000700D5010B50D4B0469A3625A
:104150004FF0FF320021204606F0C4FE04F11000AB
:1041600006F0B9FE00220121D720FEF7B7FBD720C9
:10417000FEF792FB0122034B0020C3F8042310BD7D
:1041800008BC000000700D5037B5482915461C4684
:10419000406806D051292ED02D2912D06FF085000D
:1041A0000DE00A2AFAD10422032100680DF1070369
:1041B00005F0BBFC18B99DF80730C4E9003003B026
:1041C00030BD022AEAD10522294600680DF1070315
:1041D00005F0ABFC0028F2DB9DF807301BB923602B
:1041E00063600020EBE713F00A0318BF01231B4AAA
:1041F000C4E90032F5E70722022100680DF1070348
:1042000005F093FC0028DADBEDB2133D052DC5D88F
:10421000DFE805F0030A0F14191E9DF8072002F0CD
:10422000010200232260DBE79DF80720C2F3400271
:10423000F7E79DF80720C2F38002F2E79DF8072018
:10424000C2F3C002EDE79DF80720C2F30012E8E7D1
:104250009DF80720C2F34012E3E700BF20A107004A
:1042600037B50A2A44681D6830D12D2915D0482950
:104270002CD10123206835B90522032103B0BDE804
:10428000304005F059BC0022032105F055FCF8B977
:104290000123042203212068F0E75A680D4B0E48E1
:1042A00003FB05220DF10603114606F0CEF810F1CE
:1042B000160F0DD0012202219DF80630206805F06E
:1042C0003BFC28B9012302460221E4E76FF0850098
:1042D00003B030BD40420F0018CC00002DE9F04F74
:1042E000446887B0206806F099FD002800F04E81F0
:1042F0000A22052194F86630206805F01DFC00288C
:1043000040F0888010254FF07E5BDFF888A204F132
:1043100044076FF0004357F8040F98423DD0FCF774
:1043200057FE9D49FCF75CFF5146FCF79DFD014699
:104330005846FCF755FF9949FCF794FD8046B4F8C0
:104340006400FCF741FE01464046FCF795FEFCF791
:10435000FBF9266EFDF744FA804689463046FCF7A5
:10436000D1F942464B46FCF747FAFCF707FD8302BA
:104370000644B3FBF6F6C6F38D0320688DF81430BF
:10438000022306F0030600932A46032105AB8DF8AD
:10439000156005F0E8FB00283CD10235EDB2182D80
:1043A000B7D16FF0004704F1540656F8043FBB4202
:1043B00022D041F28832C3F5C02303F2AE535A43F0
:1043C0004CBF77497749784B4BBF8918891891FBC7
:1043D000F3F3B1FBF3F3C3F38D0203F0030320689F
:1043E0008DF8153002238DF8142000932A460321FE
:1043F00005AB05F0B8FB68B91A2D0ED1626804F15F
:104400000C051146284605AB06F0C6F8163006D155
:104410006FF0150007B0BDE8F08F1A25C5E70C2234
:1044200003219DF81430206805F086FB0028F1D1A7
:10443000A2682846114605AB06F0AEF81630E7D064
:104440000D2203219DF81430206805F075FB00282B
:10445000E0D1626AE16A05AB511A013104F128002A
:1044600005F0F3FF1630D3D094F840102068FF29F0
:10447000BDF814209DF8143057D10822032105F00F
:104480005BFB0028C6D1626C4848114605AB05F0BD
:10449000DCFF1630BCD002229DF814301146206893
:1044A00005F04AFB0028B5D10E22032194F86730AD
:1044B000206805F041FB0028ACD10F22032194F8BD
:1044C0006830206805F038FB0028A3D1012324229E
:1044D0000521206805F030FB00289BD101230C2228
:1044E0000521206805F028FB002893D194F86A3054
:1044F000002B3FD194F8662094F86B30002A42D00C
:1045000006220321206805F017FB002882D194F8C9
:104510006930002B3FF47EAF012304220321206881
:1045200007B0BDE8F04F05F007BB0225520803F0C5
:1045300001038DF80C208DF80D3008220321009521
:1045400003AB05F010FB00287FF464AF94F8402023
:10455000174B206833F8123003215A0803F0010387
:104560008DF810208DF811300A22009504AB05F06B
:10457000FAFA86E7012350220321206805F0DCFACD
:104580000028B7D046E743F00203B9E76FF0120006
:1045900040E700BF3393884300007A440FCF5B3B72
:1045A000C4C3E1FF3C3C1E0078783C0018CC0000FE
:1045B0009CCD000070B53B2914464568036917D8A7
:1045C000362905D80C2900F0B9806FF085003FE04E
:1045D00037390429F9D801A252F821F02D460000FC
:1045E000DF460000CB45000039470000534600007D
:1045F00048398AB2092AE8D80929E6D801A252F82E
:1046000021F000BF35470000CB450000CB4500003E
:10461000CB450000CB450000CB450000CB4500005A
:10462000274700003147000067470000188841F223
:10463000883358434FF47A7200230021800AFCF734
:1046400007FF4FF47A7312FB03F2206062600020D0
:1046500070BD95F86620002AB7D09888FCF7B4FCA6
:1046600001464FF08940FCF7BBFD4FF07E51FCF74F
:10467000F9FBFDF735FA0646B5F86400FCF7A4FC33
:1046800001463046FCF7ACFD01463848FCF7EAFB32
:1046900001464FF07E50FCF7A3FD3549FCF7E2FBE5
:1046A0004FF04F410546FCF785FE0028CFD14FF073
:1046B0009E412846FCF792FE0028C8D12846FCF708
:1046C000A1FE2060FCF784FC01462846FCF7CAFBEB
:1046D0002849FCF7D1FCFCF795FE6060B7E75888E5
:1046E0009B7A0D2B10D80B2B10D8042B13D0002342
:1046F000584340F2FF3390FBF3F000231E4AC117EA
:10470000FCF7A6FE2060A1E70F2BF0D17D226B6A9B
:104710005343642204E0EB6B6A6B5B425343AA6B26
:1047200093FBF2F3E4E71B7A2360002363608EE7D8
:104730005B7AF9E7686AE0E7E86BDEE7D8880F4B59
:104740004FF47A7258430E4B90FBF3F000F5C02003
:1047500000F2AE500023C117FCF77AFE4FF47A73D3
:1047600020605A4372E7DB7ADEE700BF0FCF5B3B86
:10477000339388430024744940420F0078783C000A
:1047800078ECFFFF38B5054644680121E06805F084
:1047900059FF6B6819686369C1F82435E28BA38BF4
:1047A000A07E1343228C1343628C1343627E9BB220
:1047B0000243207E02431343C1F86C3569680B68DD
:1047C000D3F8002242F48022C3F800220822C3F862
:1047D00000254A6A0121C3F83C270022C3F840277C
:1047E0001965D3F830110029FBD0C3F800252846FD
:1047F000BDE83840014904F078BB00BFA3A6000023
:104800002DE9F04704460D46466806F058FCD0B93D
:10481000334B1B7883F001036268D4F8108017686B
:104820009BB12021EFF31183994681F31288BFF3E6
:104830006F8F62681268D2F83021D2B983F3118881
:10484000BFF36F8FEEE70123E6E74FF0200A4FF04A
:10485000640963681B68D3F830317BBB012005F025
:1048600088FFB9F10109F4D10021202006F0ECFC09
:10487000EDE7D8F804301A0706D443F008032046C1
:10488000C8F8043004F0A3FB736A00211D7063684C
:10489000726A1B68C3F83C270122C3F84027C3F89B
:1048A0003011D3F830111A654FF48053C7F8043330
:1048B00089F31188BFF36F8FBDE8F087EFF31183A1
:1048C00099468AF31288BFF36F8F62681268D2F834
:1048D0003021002ACDD183F31188BFF36F8FC3E756
:1048E000D412002070B40F4CD4E90015501A63EBB9
:1048F0000506400940EAC6602026E0FB0615C4E92B
:104900000015002400250849C1E90023074BC3E92D
:104910000045EFF3118186F31288BFF36F8F70BCEF
:1049200002F0E4BD980800208008002090080020D4
:1049300008B500220121E420FDF7D0FF174A00202E
:10494000D2F8183723F4403343F40033C2F8183751
:1049500000F050FD002820DB0120114900F0D6FDB9
:1049600000281ADB00F020FD0E4B20F01F00C3E9E9
:1049700000010D4B0022C3E900014FF0FF304FF062
:10498000FF310A4BC3E90001094B0A49187A00F0CC
:104990001BFD67220020084B1A6008BD00200E5046
:1049A000C805002098080020780800208008002012
:1049B000C0050020E5480000F00D002008B500F01B
:1049C000F3FC064AD2E90032C01A054B61EB020142
:1049D000C3E90001400940EAC16008BD9808002011
:1049E00090080020F7B5224B0146224F187A224B3F
:1049F000D7E90056D3E900239E4208BF954211D162
:104A0000B1F1806F0ED24901012938BF0121012285
:104A10004D1946F10006C7E9005603B0BDE8F04065
:104A200000F0FABD154BDFF858C0D3E90043DCE9CC
:104A3000002CA41843EB0C0C4FF0200E22466346CA
:104A4000E1FB0E23954276EB0301C7E900230DD26B
:104A5000291B66EB0C04C82974F10004B4BF0121C2
:104A60000021009100F0A2FD03B0F0BD0021F8E7A5
:104A7000C005002088080020800800209808002039
:104A800090080020064BD3F840231C2A05D1D3F808
:104A90004403431E5842584170470020704700BFEE
:104AA00000C0FF0003689A070CD50368DB070DD52B
:104AB0000922074BC3F80C250F22C3F80425012255
:104AC0001A60FEE7034B0360EF3B0360704700BFD3
:104AD00000801050F000FA5008B50123424A4348C4
:104AE000C2F80038424AD2F840231C2A04BF414A87
:104AF000C2F80C34FFF7D6FF0830FFF7D3FF0830B9
:104B0000FFF7D0FF0830FFF7CDFF00F5F470FFF797
:104B1000C9FF394AD2F88C3043F44063C2F88C3074
:104B20000022D30003F57F0303F54043D3F80014BC
:104B300001310AD0D3F8001439B1D3F8001401328E
:104B4000D3F80434402A0B60EBD1274BD3F8402430
:104B5000002A44D0FFF796FF48B1254BD3F8342301
:104B6000264B9A429EBF204B254AC3F84026FFF7AA
:104B700089FF18B1234B244AC3F8AC27FFF782FF03
:104B800048B13422184BC3F82426D3F83C2622F42B
:104B90000022C3F83C261D4B1749D3F80026D20744
:104BA00044BF6FF00102C3F80026194BD3F8182553
:104BB00022F00302C3F81825D3F8182542F00302A7
:104BC000C3F81825D1F88C2042F44062C1F88C203B
:104BD00000221049C1F8D426C3F8A02508BDC82278
:104BE000C3F84024B6E700BF0000125000C50D50C6
:104BF00000C0FF000030055000ED00E0001D0A1865
:104C000040E0A91E00A0085078000A0400E01050FF
:104C100000B0045000600D5038B504230A4C42F235
:104C20001075C4F80833012363610023C4F8083108
:104C3000D4F80831D4F84C34DB0304D5012005F056
:104C400098FD013DF6D138BD00E01050074A1379B8
:104C500043B90121537110601171054A1846C2F819
:104C6000403470476FF07700704700BFF40D0020AC
:104C700000E0105010B51B4B1B4CD3F84C14D3F86C
:104C80004C2411F4803F14D0900701D0FFF7C4FFEB
:104C90000022144BC3F84024C3F80821D3F808219C
:104CA00001221A61226872B9D3F80821002AFBD0C8
:104CB00011E0D3F84824D107EAD5D3F8502492075D
:104CC000E4D122681AB10422C3F8042310BDD3F83A
:104CD0000821002AFBD00022C3F80821D3F80831AC
:104CE000F4E700BF00E01050F40D0020154BD3F89E
:104CF0000C24D10320D5D3F84C24D2031CD5124A5E
:104D0000517901F0FF00D1B9C3F80C01D3F80C11AF
:104D1000012151719961126822B10822C3F804235C
:104D200000207047D3F80C21002AFBD00022C3F8E2
:104D30000C21D3F80C31F3E76FF0760070476FF079
:104D40000F00704700E01050F40D002070B5134CB8
:104D5000134DD4F80C3303F00C0303B970BDB3FA50
:104D600083F300260121C3F11F039A0002F580722C
:104D700092B202F1A04202F58712166099401268C1
:104D8000C4F80813032BD8B22B6808BF6E7198477C
:104D9000D4F80C3303F00C03DFE700BF00E0105041
:104DA000F40D0020712238B5104B0021C3F8082300
:104DB000012242F210745A60C3F80011D3F80011B6
:104DC0000B490A4DD1F840131C2908BFDA60D5F809
:104DD0000C3413F4803305D0012005F0CAFC013CEB
:104DE000F5D138BD034A5371FBE700BF00E0105016
:104DF00000C0FF00FC0D0020054B0246187918B9D1
:104E00001A6001221A7170476FF07700704700BF77
:104E1000FC0D00200022164BC3F81021D3F810110E
:104E2000C3F81821D3F81811C3F81421D3F81411BA
:104E30001049D1F840131C2904BF01219960C3F81F
:104E40000021D3F8002101221A600B4A126852B9DE
:104E5000074BD3F80021002AFBD00022C3F8002121
:104E6000D3F8003170477122C3F80423704700BFA4
:104E700000E0105000C0FF00FC0D0020F8B5012636
:104E8000194C1A4DD4F80C3303F0710303B9F8BD73
:104E9000B3FA83F30021C3F11F039A0002F5807275
:104EA00092B202F1A04202F58712116006FA03F7EE
:104EB000042B1268D8B2C4F8087308D0062B10D09F
:104EC0002B689847D4F80C3303F07103DEE7022314
:104ED0006B71C4F81411D4F814312023C4F80433CE
:104EE000EEE76971ECE700BF00E01050FC0D002018
:104EF000036803F01F025F2B02604FEA53129ABF50
:104F0000024B53F822000020704700BFF4CC000091
:104F1000034A4309D35C00F01F001844C0B2704735
:104F2000F8D30000F0B50646002487B0114F019178
:104F300017F8012B06AB03EBD20313F8143C02F075
:104F40000702D34013F0010306D10134032CEFD143
:104F50000023184607B0F0BD074A03AD07CA85E82D
:104F6000070055F824100A6A46F824200A62002A2D
:104F7000EBD0EEE708D4000010C90000F7B50446F6
:104F80000846FFF7C5FF04EB4006B38A0D46DB0772
:104F90002AD5204605F00DFD2946204605F07AFC6D
:104FA00050B1204605F08CFC0023276807EB8000F9
:104FB000C0F81035C0F810352946204605F0A9FC88
:104FC000002101A8B1820195FFF792FF019B00EB40
:104FD0008300D0F88020064B134043F00203C0F852
:104FE0008030084603B0F0BD6FF01500FAE700BF4F
:104FF000F0F0FCFF2DE9F043044685B00846154665
:105000001F46FFF785FF0E46804625B3204605F074
:105010004CFC18B9204605F03DFC18BB04EB4809D0
:10502000B9F8143003F01C0313B16B78012B19D0BD
:1050300001238DF80F3000233046CDE900536A1C60
:10504000AB1C0DF10F0105F0CDFBB9F8143043F0A6
:105050000303A9F81430002F3ED03146204605F056
:1050600024FC20B96FF0150005B0BDE8F0830022E4
:10507000397823684FEA810C03EB8103C3F81025CC
:10508000C3F8102504EB4802938A23F4604323F00D
:10509000200393827D78FDB12468B8786444D4F805
:1050A00010750E4B2D043B40C4F8103541F6F073DB
:1050B00005F4403503EA06130005D4F810752B43B8
:1050C00000F4801003433B43C4F81035938A43EA4D
:1050D000413343F0200393820020C5E70FE0ECFF4B
:1050E00070B590F87440054690F8756044BB462250
:1050F0002146143006F05BFC2146134A2B6852F817
:1051000036608E4212D1002440F20D10C3F84441A3
:10511000D3F844210D4A934208BFDB20FDF7BCFBC6
:105120000123204685F874302B6670BDCAB2920008
:1051300002F58070442A04BF1C501A580131E0E780
:105140006FF07700F1E700BF00CD000000A00D5028
:1051500090F87500024B03EB800005F026BB00BF02
:10516000D005002010B5064B90F875000C4603EBF7
:10517000800005F000FB0028A4BF2070002010BDB7
:10518000D00500202DE9F04F804658F804BB90F878
:105190007540DBF814136A4BC9B253F83420074644
:1051A0008BB0584641F4003105F0DCFB8203054624
:1051B00039D50023CDE907330993614BE60003EBB2
:1051C000C404636807A819460093FFF7ABFE331DBC
:1051D00003934FF0000A5B4B0DF11C090293029AF6
:1051E000574912F8013B0292039A02EBD3028A5C00
:1051F00003F0070322FA03F3DB071AD40AF1010ACA
:10520000BAF1030F09F10409E9D14FF4003100228A
:10521000584605F0A7FB009907A8FFF783FE002872
:10522000D7D125F400350124002D73D10BB0BDE892
:10523000F08F454B53440493D9F80060002EDDD025
:1052400096FAA6F6B6FA86F6049B1C7846EA44144B
:105250002046FFF75DFE07EB4000818AF208C1F3AC
:10526000820305930193012319F8020006F0070653
:1052700003FA06F620EA060009F8020006A80694DA
:10528000FFF736FE069A11F0100F02F1200250F8D7
:105290002260059BC6F3014623D04046019A214671
:1052A00005F018FB06A80694FFF722FE069BF6B24F
:1052B000203350F82330C3F301439E4207D100212D
:1052C000204605F0D8FA3146204605F0D4FA06A863
:1052D0000694FFF70DFE0122069B02FA03F3036218
:1052E000AAE7022E14BF022103212046059305F0F0
:1052F000C2FA059B032B03D0022E07D1012BE6D166
:1053000021464046019A05F0E5FAE0E7032EDED19A
:10531000022BF4E795FAA5F3B3FA83F304FA03F248
:1053200025EA020503F5A2725BF8222007EB43038E
:105330004046B3F86410C2F3014205F0CBFA73E7BC
:1053400000CD000008D4000008D400000123034A67
:1053500003FA00F09368034393607047D80300207A
:1053600073B504460191EFF31186202383F312886D
:10537000BFF36F8F0B4D019B6A6801A81340019327
:1053800005F0F9F9002807DB01226B68824023EA67
:1053900002036B602070002086F31188BFF36F8FCB
:1053A00002B070BDD80300204FF0FF326FF04043D1
:1053B00030B5044CD4E90001824273EB0105F9D306
:1053C00030BD00BF40270E5030B50C25074B1C18D0
:1053D00094F8544005FB0433C3E903121875012304
:1053E000034A8340C2F8243330BD00BFD8030020F5
:1053F00000200E50F8B53E4C2278002A72D13D4B69
:10540000D3F8101521F00201C3F81015D3F81015C8
:1054100041F00101C3F810150521C3F8A4160421B9
:10542000C3F8AC160723672101F001000244013BD9
:10543000D2B24FEA5101F7D1052A56D119464FF0A1
:10544000010C2B4E00256720CFB204E00CFA02F2CB
:1054500020EA0200013590FAA0F25FFA85FEBE450F
:10546000B2FA82F2F2D3013132750529224482F870
:10547000547006F10C06E5D1012100251E489A085A
:1054800001FA02F212F0670F18BF1D500433302BDF
:10549000F5D1E420FDF700FA164B1849D3F8102592
:1054A00003F5C07322F00202C3F8902340F6FF72A6
:1054B000C3F8A82100221A60A3F5807004338B4240
:1054C0000260F8D101250B4B0D4A1D660D4B5D2086
:1054D0001B68B3FBF2F358430B4B2B439847002058
:1054E0002570F8BD6FF07700FBE76FF08B00F8E7F1
:1054F000D803002000200E5000210E50B0210E5085
:1055000040420F00CC05002030C9000038B5244BC4
:105510000D46D3F8102594073CD4D3F8102542F05B
:105520000202C3F81025C0B1D3F8482712F00102D7
:1055300002BFD3F8481741F00101C3F84817184BD0
:10554000D3F84017D3F844174800F9D42AB9D3F850
:10555000482722F00102C3F84827124B124A1B6861
:10556000B3FBF2F30E4A03EB4313B3B1D2F8401787
:10557000D2F8441749000BD44FF0FF312846FFF70B
:10558000EFFE044610B92878FFF7E0FE204638BD4C
:10559000013BEAE76FF07704F8E76FF07304F5E793
:1055A00000200E50CC05002040420F0070B51E4672
:1055B0001546174A9DF81010131893F854300C3301
:1055C00002EBC30442F833506660C6F313020401D1
:1055D000A1B104F1A04404F56224C4F82055C4F834
:1055E00024250C4C80000444236833B1FFF7DCFE13
:1055F000A842B14101D20023236070BD04F1A04351
:1056000003F56223C3F82055C3F82425F5E700BF4E
:10561000D803002000210E50F0B50E4D2B1893F842
:10562000543000010C3355F8334005EBC3077E6856
:10563000641800F1A04021F0004146F1000641EA63
:10564000C27100F5622045F833407E60C0F828152D
:10565000F0BD00BFD8030020F7B5284B284CD3F885
:105660002C6304F188070EB903B0F0BD96FAA6F0DA
:105670000123B0FA80F08340DA43224926EA030688
:10568000231893F85450830019440C2303FB05435B
:10569000DB6873B3D7E8EF3F03EA020CC7E8EECF4D
:1056A000BEF1000FF6D1C340DB0719D5020102F1AC
:1056B000A04202F56222D2F82435D2F82025D1F892
:1056C00000C0BCF1000FCED04FF0000CC1F800C0FC
:1056D0000C2101FB054529690091E9688847C2E76B
:1056E00005F10C0304EBC30C54F83320DCF8043050
:1056F000E5E70A68002AB6D00B60B4E700200E5038
:10570000D803002000210E5000220D4BC3F80021C9
:10571000D3F80011C3F80421D3F80411C3F8082109
:10572000D3F80811C3F80C21D3F80C11C3F81021D9
:10573000D3F81011C3F81421D3F81431704700BF07
:105740000050045070B54FF4FA7500F15024144E17
:1057500004F5802423682BB123689BB1FFF7D4FFA5
:1057600000200EE0D6F80831002BF5D1D6F80C3128
:10577000002BF1D10A2004F0FCFF013DEAD16FF0CB
:10578000730070BD064BD3F8083123B1FFF7BCFF9F
:105790006FF00C00F5E7FFF7B7FF6FF00D00F0E7D3
:1057A000005004502DE9F04105460E464FF4FA77BB
:1057B000104CD4F80084B8F1000F08D00A2004F08F
:1057C000D8FF013FF5D16FF00A00BDE8F081012359
:1057D000C4F800554FF48870E360FFF7B3FF10F191
:1057E000740FF2D010F10E0F14BF002001203070A2
:1057F0004046EAE70050045010B5054C207820B927
:10580000FFF782FF0123237010BD6FF07700FBE7E5
:10581000D3120020F8B506460D464FF4FA770C4C2B
:10582000D4F800343BB10A2004F0A3FF013FF7D1C4
:105830006FF00A00F8BD0123C4F80465C4F80055F0
:1058400023604FF48070BDE8F840FFF77BBF00BFD6
:1058500000500450F8B504460F4E4518A54201D833
:1058600000200BE04FF4FA77D6F800343BB10A2061
:1058700004F07FFF013FF7D16FF00A00F8BD01236C
:10588000C6F800454FF482707360FFF75BFF002895
:10589000F4D10134E2E700BF00500450F8B50446EB
:1058A0000F4E4518A54201D800200BE04FF4FA77BF
:1058B000D6F800343BB10A2004F05BFF013FF7D17A
:1058C0006FF00A00F8BD0123C6F800454FF484705C
:1058D000B360FFF737FF0028F4D10134E2E700BFDF
:1058E00000500450F8B505460E464FF4FA770D4CBB
:1058F000D4F800343BB10A2004F03BFF013FF7D15C
:105900006FF00A00F8BD0123C4F800554FF4887009
:10591000E360FFF717FF0028F4D1D4F808353360AF
:10592000F0E700BF005004502DE9F0411646044650
:10593000134F4518A5421ED94FF4FA78D7F8003412
:1059400043B10A2004F015FFB8F10108F6D1012097
:10595000BDE8F0810123C7F800454FF48870FB6073
:10596000FFF7F0FE10F1740FF1D00D300CBF0123E2
:105970000023337001D00020EAE70134DAE700BFEA
:1059800000500450044B40EA0120C3F80005D3F84E
:105990000024D207FBD5704700B0045070B5847B5B
:1059A0002CBB02685F2A02F01F034FEA52111FD876
:1059B00040F60C05104E56F82120104902EB8302E8
:1059C000D2F880300B402B43C2F8803042685F2A07
:1059D00002F01F034FEA52100AD856F8202002EBBB
:1059E0008302D2F880300B402B43C2F8803070BD68
:1059F000203354F82330FFDE10CD0000F0F0FCFF20
:105A000000210268094BC160C2F80833D2F80032A5
:105A100023F0FF5323F4BC53C2F800320123C2F831
:105A2000001580F8263080F8281070472264F81F8F
:105A300000232DE9F04780F827304B6805460E46D5
:105A40001746046833B1CB6803F06043B3F1005FDD
:105A500040F042813378023B012B06D8336903F0D2
:105A60006043B3F1005F40F037819D4BC4F80833C9
:105A700095F8283003F0FF023BB16FF00F08EB6898
:105A8000C4F804334046BDE8F08707F01403B3FAC6
:105A900083F35B0985F82830337885F824307378F0
:105AA00085F82530F3682B6173686B613369AB61EE
:105AB000B3682F62EB61C7F3001385F82930737860
:105AC000C4F88835C4F83821D4F83831C4F828210E
:105AD000D4F82831C4F81421D4F81431C4F80421BE
:105AE000D4F8043117F0010318BF0123C4F84C3770
:105AF00017F0020318BF0123C4F814373378032BBF
:105B000000F28180DFE803F05E764A024FF4807392
:105B1000C4F80032D5E90423C4F83C27C4F8403760
:105B2000012323654FF00061204605F0DEF80028D0
:105B3000F8D1D5E90623C4F83C27C4F840374FF420
:105B40008063EB604FF0000817F0080910D133783C
:105B5000032B0DD0012B6A686CD1A362002A55D0AB
:105B600073682BB96B68002B00F09480012363608D
:105B70006B68002B00F08E80780744BF0023EB6039
:105B800079065EBFEB6843F00203EB60EB6843F01D
:105B90002003EB60EB68C4F8043373E7D5E9042312
:105BA000C4F83C27C4F84037D5E90623C4F80427D5
:105BB000C4F808374FF48453C4F80032012323613A
:105BC0000223BEE7B806D5E90423C4F83C27C4F88D
:105BD00040374BBF4FF480734FF40073C4F800326A
:105BE000C4F800324CBF4FF480630223EB60012302
:105BF0002361A7E7D5E90423C4F80427C4F80837CC
:105C00004FF48053D8E76FF015089DE76A6902B931
:105C100063604FF0010A40F2024940F222412046FF
:105C200005F063F8810601D5C4F804A010EA090F55
:105C3000F3D095E701232365002A91D16A693AB32D
:105C400040F2024A19EA0A0F8AD140F22241204664
:105C500005F04BF810F0200F8146F3D04FF480414F
:105C6000204605F042F8D4F8003208B19A0505D470
:105C700001222261626040B14FF00009DB05E1D5ED
:105C80004FF48061204605F030F84FF00009D9E765
:105C90006360D5E70022D4F8C434C4F8C43485F86E
:105CA00028206BB19A0756BF03F001086FF00D086A
:105CB000A8F18C0813F0040F18BF6FF00A08E1E692
:105CC0007B063FF5DFAE2046291D04F0CCFF0028FF
:105CD00008BF6FF08B08D5E66FF00C08D2E600BF66
:105CE0002264F81F70B50568022186B00446284674
:105CF00004F0FBFF20210646284604F0F6FFD0B151
:105D0000D6B9E3684FF48041C5F808330223E36055
:105D1000E3682846C5F8043304F0E7FF18B1D5F866
:105D200000329B0502D401232B616B60012384F8B0
:105D3000273006B070BD8EB3236A5E060AD494F88D
:105D400027303BB92846211D04F08DFF80F001006B
:105D500084F82700236A13F0040337D1C5F83831DB
:105D6000D5F83821C5F83431D5F8343194F82930D4
:105D700013B194F82730F3B100230122C5F80032A3
:105D8000E3602E4BC5F30431C5F808338A40C5F3F0
:105D900043432B49603341F823200CE04FF48061EA
:105DA000284604F0A2FF94F82430002B2FD194F859
:105DB0002930002BE1D0A38CADF804302369049383
:105DC00063690293A3690593E3690393D5F8C43427
:105DD0009807C5F8C4342AD459072AD4DA072AD434
:105DE00094F827309B00DBB28DF8003094F829300E
:105DF0000BB984F82830236A5B0703D594F8273061
:105E0000002B96D0D4E901316846984791E74FF4CA
:105E10000073C5F800322223E360084BC5F808334D
:105E2000E368C5F8043301232B652B6181E7012367
:105E3000DAE70223D8E70323D6E700BF2264F81F7E
:105E400000E100E0036803F01F025F2B02604FEAED
:105E500053129ABF024B53F822000020704700BF34
:105E60001CCD0000F7B5064604F0ABFF084604F071
:105E7000A8FF01A80196FFF7E5FF40F60D050C46C7
:105E8000019B2C4900EB8300D0F8803001940B403B
:105E90002B43C0F8803001A8FFF7D4FF019B0127F6
:105EA00000EB8300D0F880300B402B43C0F88030EB
:105EB000042004F05EFC092501A80194FFF7C2FF4D
:105EC000019AC368D340DB0714D401A80196FFF7F9
:105ED000B9FF019B013D07FA03F38360042004F03E
