:10000000304C002045630000C3F80000316300005D
:100010003163000031630000316300003163000090
:10002000000000000000000000000000B5640000B7
:1000300031630000000000004D64000031630000E7
:100040004D6600004D6600004D6600004D660000E4
:100050004D6600004D6600004D6600004D660000D4
:100060004D6600004D6600004D6600004D660000C4
:100070004D6600004D6600004D6600004D660000B4
:1004800081F0004102E000BF83F0004330B54FEA45
:1004900041044FEA430594EA050F08BF90EA020FB2
:1004A0001FBF54EA000C55EA020C7FEA645C7FEA45
:1004B000655C00F0E2804FEA5454D4EB5555B8BF68
:1004C0006D420CDD2C4480EA020281EA030382EAD9
:1004D000000083EA010180EA020281EA0303362D6B
:1004E00088BF30BD11F0004F4FEA01314FF4801C3E
:1004F0004CEA113102D0404261EB410113F0004F50
:100500004FEA03334CEA133302D0524263EB430306
:1005100094EA050F00F0A780A4F10104D5F1200EA4
:100520000DDB02FA0EFC22FA05F2801841F10001FF
:1005300003FA0EF2801843FA05F359410EE0A5F1D3
:1005400020050EF1200E012A03FA0EFC28BF4CF004
:10055000020C43FA05F3C01851EBE37101F00045BA
:1005600007D54FF0000EDCF1000C7EEB00006EEBC7
:100570000101B1F5801F1BD3B1F5001F0CD3490851
:100580005FEA30004FEA3C0C04F101044FEA4452A8
:1005900012F5800F80F09A80BCF1004F08BF5FEA2F
:1005A000500C50F1000041EB045141EA050130BD0F
:1005B0005FEA4C0C404141EB0101013C28BFB1F521
:1005C000801FE9D291F0000F04BF01460020B1FA6C
:1005D00081F308BF2033A3F10B03B3F120020CDA3F
:1005E0000C3208DD02F1140CC2F10C0201FA0CF01D
:1005F00021FA02F10CE002F11402D8BFC2F1200C82
:1006000001FA02F120FA0CFCDCBF41EA0C01904037
:10061000E41AA2BF01EB0451294330BD6FEA040480
:100620001F3C1CDA0C340EDC04F11404C4F120026B
:1006300020FA04F001FA02F340EA030021FA04F37D
:1006400045EA030130BDC4F10C04C4F1200220FAD4
:1006500002F001FA04F340EA0300294630BD21FA12
:1006600004F0294630BD94F0000F83F4801306BFD8
:1006700081F480110134013D4EE77FEA645C18BFCC
:100680007FEA655C29D094EA050F08BF90EA020F63
:1006900005D054EA000C04BF1946104630BD91EA5B
:1006A000030F1EBF0021002030BD5FEA545C05D15E
:1006B0004000494128BF41F0004130BD14F580049D
:1006C0003CBF01F5801130BD01F0004545F0FE4111
:1006D00041F470014FF0000030BD7FEA645C1ABF46
:1006E000194610467FEA655C1CBF0B46024650EA7D
:1006F000013406BF52EA033591EA030F41F40021A9
:1007000030BD00BF90F0000F04BF0021704730B52E
:100710004FF4806404F132044FF000054FF0000103
:1007200050E700BF90F0000F04BF0021704730B5C4
:100730004FF4806404F1320410F0004548BF404299
:100740004FF000013EE700BF42004FEAE2014FEAEE
:1007500031014FEA02701FBF12F07F4393F07F4FC9
:1007600081F06051704732F07F4208BF704793F0CC
:100770007F4F04BF41F40021704730B54FF46074DF
:1007800001F0004521F000411CE700BF50EA0102E2
:1007900008BF704730B54FF000050AE050EA01028B
:1007A00008BF704730B511F0004502D5404261EBFB
:1007B00041014FF4806404F132045FEA915C3FF43C
:1007C000D8AE4FF003025FEADC0C18BF03325FEAD9
:1007D000DC0C18BF033202EBDC02C2F1200300FA8A
:1007E00003FC20FA02F001FA03FE40EA0E0021FAAF
:1007F00002F11444BDE600BF70B54FF0FF0C4CF49D
:10080000E06C1CEA11541DBF1CEA135594EA0C0F4E
:1008100095EA0C0F00F0DEF82C4481EA030621EA89
:100820004C5123EA4C5350EA013518BF52EA0335C4
:1008300041F4801143F4801338D0A0FB02CE4FF076
:100840000005E1FB02E506F00042E0FB03E54FF0A6
:100850000006E1FB03569CF0000F18BF4EF0010E9E
:10086000A4F1FF04B6F5007F64F5407404D25FEA9A
:100870004E0E6D4146EB060642EAC62141EA55514D
:100880004FEAC52040EA5E504FEACE2EB4F1FD0C8F
:1008900088BFBCF5E06F1ED8BEF1004F08BF5FEA0D
:1008A000500E50F1000041EB045170BD06F00046BF
:1008B00046EA010140EA020081EA0301B4EB5C046C
:1008C000C2BFD4EB0C0541EA045170BD41F4801164
:1008D0004FF0000E013C00F3AB8014F1360FDEBF89
:1008E000002001F0004170BDC4F10004203C35DA65
:1008F0000C341BDC04F11404C4F1200500FA05F3E8
:1009000020FA04F001FA05F240EA020001F0004288
:1009100021F0004110EBD37021FA04F642EB0601FE
:100920005EEA430E08BF20EAD37070BDC4F10C0428
:10093000C4F1200500FA04F320FA05F001FA04F2EC
:1009400040EA020001F0004110EBD37041F10001D8
:100950005EEA430E08BF20EAD37070BDC4F12005E3
:1009600000FA05F24EEA020E20FA04F301FA05F24B
:1009700043EA020321FA04F001F0004121FA04F2F3
:1009800020EA020000EBD3705EEA430E08BF20EAC3
:10099000D37070BD94F0000F0FD101F000464000FD
:1009A00041EB010111F4801F08BF013CF7D041EA7F
:1009B000060195F0000F18BF704703F00046520083
:1009C00043EB030313F4801F08BF013DF7D043EA54
:1009D0000603704794EA0C0F0CEA135518BF95EA0A
:1009E0000C0F0CD050EA410618BF52EA4306D1D191
:1009F00081EA030101F000414FF0000070BD50EAB0
:100A0000410606BF1046194652EA430619D094EA39
:100A10000C0F02D150EA013613D195EA0C0F05D123
:100A200052EA03361CBF104619460AD181EA030177
:100A300001F0004141F0FE4141F470014FF000002F
:100A400070BD41F0FE4141F4780170BD70B54FF0CA
:100A5000FF0C4CF4E06C1CEA11541DBF1CEA13554A
:100A600094EA0C0F95EA0C0F00F0A7F8A4EB05042C
:100A700081EA030E52EA03354FEA013100F0888023
:100A80004FEA03334FF0805545EA131343EA1263EC
:100A90004FEA022245EA111545EA10654FEA0026A1
:100AA0000EF000419D4208BF964244F1FD0404F55A
:100AB000407402D25B084FEA3202B61A65EB0305B6
:100AC0005B084FEA32024FF480104FF4002CB6EB73
:100AD000020E75EB030E22BFB61A754640EA0C00F3
:100AE0005B084FEA3202B6EB020E75EB030E22BF33
:100AF000B61A754640EA5C005B084FEA3202B6EB74
:100B0000020E75EB030E22BFB61A754640EA9C0032
:100B10005B084FEA3202B6EB020E75EB030E22BF02
:100B2000B61A754640EADC0055EA060E18D04FEAC0
:100B3000051545EA16754FEA06164FEAC30343EA60
:100B400052734FEAC2025FEA1C1CC0D111F4801F2D
:100B50000BD141EA00014FF000004FF0004CB6E726
:100B600011F4801F04BF01430020B4F1FD0C88BFC5
:100B7000BCF5E06F3FF6AFAEB5EB030C04BFB6EBD0
:100B8000020C5FEA500C50F1000041EB045170BDC3
:100B90000EF0004E4EEA113114EB5C04C2BFD4EBF0
:100BA0000C0541EA045170BD41F480114FF0000E74
:100BB000013C90E645EA060E8DE60CEA135594EAF0
:100BC0000C0F08BF95EA0C0F3FF43BAF94EA0C0FF3
:100BD0000AD150EA01347FF434AF95EA0C0F7FF468
:100BE00025AF104619462CE795EA0C0F06D152EABC
:100BF00003353FF4FDAE1046194622E750EA4106A0
:100C000018BF52EA43067FF4C5AE50EA41047FF4B0
:100C10000DAF52EA43057FF4EBAE12E74FF0FF3C15
:100C200006E000BF4FF0010C02E000BF4FF0010CE6
:100C30004DF804CD4FEA410C7FEA6C5C4FEA430C5F
:100C400018BF7FEA6C5C1BD001B050EA410C0CBFAE
:100C500052EA430C91EA030F02BF90EA020F002010
:100C6000704710F1000F91EA030F58BF994208BF77
:100C700090422CBFD8176FEAE37040F00100704734
:100C80004FEA410C7FEA6C5C02D150EA013C07D18B
:100C90004FEA430C7FEA6C5CD6D152EA033CD3D0D6
:100CA0005DF8040B704700BF8446104662468C46D0
:100CB0001946634600E000BF01B5FFF7B7FF002803
:100CC00048BF10F1000F01BD4DF808EDFFF7F4FF2C
:100CD0000CBF012000205DF808FB00BF4DF808EDB7
:100CE000FFF7EAFF34BF012000205DF808FB00BFDA
:100CF0004DF808EDFFF7E0FF94BF012000205DF8FC
:100D000008FB00BF4DF808EDFFF7CEFF94BF0120B0
:100D100000205DF808FB00BF4DF808EDFFF7C4FFA9
:100D200034BF012000205DF808FB00BF4FEA4102FC
:100D300012F5001215D211D56FF47873B3EB62522D
:100D400012D94FEAC12343F0004343EA505311F054
:100D5000004F23FA02F018BF404270474FF00000E6
:100D6000704750EA013005D111F0004008BF6FF024
:100D7000004070474FF00000704700BF4A0011D29A
:100D800012F5001211D20DD56FF47873B3EB6252E5
:100D90000ED44FEAC12343F0004343EA505323FAF1
:100DA00002F070474FF00000704750EA013002D166
:100DB0004FF0FF3070474FF0000070474FEA41029C
:100DC000B2F1E04324BFB3F5001CDCF1FE5C0DD9A9
:100DD00001F0004C4FEAC0024CEA5070B2F1004FF3
:100DE00040EB830008BF20F00100704711F0804FF6
:100DF00021D113F13872BCBF01F00040704741F4BB
:100E000080114FEA5252C2F11802C2F1200C10FABE
:100E10000CF320FA02F018BF40F001004FEAC123A2
:100E20004FEAD32303FA0CFC40EA0C0023FA02F346
:100E30004FEA4303CCE77FEA625307D150EA01331C
:100E40001EBF4FF0FE4040F44000704701F00040EC
:100E500040F0FE4040F40000704700BF80F00040CA
:100E600002E000BF81F0004142001FBF5FEA410382
:100E700092EA030F7FEA226C7FEA236C6AD04FEA82
:100E80001262D2EB1363C1BFD218414048404140C7
:100E9000B8BF5B42192B88BF704710F0004F40F479
:100EA000000020F07F4018BF404211F0004F41F495
:100EB000000121F07F4118BF494292EA030F3FD061
:100EC000A2F1010241FA03FC10EB0C00C3F1200374
:100ED00001FA03F100F0004302D5494260EB400003
:100EE000B0F5000F13D3B0F1807F06D340084FEA6E
:100EF000310102F10102FE2A51D2B1F1004F40EB63
:100F0000C25008BF20F0010040EA030070474900CA
:100F100040EB0000013A28BFB0F5000FEDD2B0FA67
:100F200080FCACF1080CB2EB0C0200FA0CF0AABF8A
:100F300000EBC25052421843BCBFD0401843704728
:100F400092F0000F81F4000106BF80F4000001322E
:100F5000013BB5E74FEA41037FEA226C18BF7FEA05
:100F6000236C21D092EA030F04D092F0000F08BF47
:100F70000846704790EA010F1CBF0020704712F02E
:100F80007F4F04D1400028BF40F00040704712F16D
:100F900000723CBF00F50000704700F0004343F0D2
:100FA000FE4040F4000070477FEA226216BF084608
:100FB0007FEA23630146420206BF5FEA412390EACB
:100FC000010F40F4800070474FF0000304E000BFC1
:100FD00010F0004348BF40425FEA000C08BF704772
:100FE00043F0964301464FF000001CE050EA010236
:100FF00008BF70474FF000030AE000BF50EA01024B
:1010000008BF704711F0004302D5404261EB410137
:101010005FEA010C02BF84460146002043F0B6435C
:1010200008BFA3F18053A3F50003BCFA8CF2083A81
:10103000A3EBC25310DB01FA02FC634400FA02FC8A
:10104000C2F12002BCF1004F20FA02F243EB020091
:1010500008BF20F00100704702F1200201FA02FCF3
:10106000C2F1200250EA4C0021FA02F243EB0200E6
:1010700008BF20EADC7070474FF0FF0C1CEAD0522A
:101080001EBF1CEAD15392EA0C0F93EA0C0F6FD0EB
:101090001A4480EA010C400218BF5FEA41211ED0C9
:1010A0004FF0006343EA501043EA5111A0FB0131B5
:1010B0000CF00040B1F5000F3EBF490041EAD3718A
:1010C0005B0040EA010062F17F02FD2A1DD8B3F106
:1010D000004F40EBC25008BF20F00100704790F075
:1010E000000F0CF0004C08BF49024CEA502040EAC7
:1010F00051207F3AC2BFD2F1FF0340EAC25070478D
:1011000040F400004FF00003013A5DDC12F1190FCA
:10111000DCBF00F000407047C2F10002410021FA3C
:1011200002F1C2F1200200FA02FC5FEA310040F154
:10113000000053EA4C0308BF20EADC70704792F0CD
:10114000000F00F0004C02BF400010F4000F013A05
:10115000F9D040EA0C0093F0000F01F0004C02BF00
:10116000490011F4000F013BF9D041EA0C018FE76F
:101170000CEAD15392EA0C0F18BF93EA0C0F0AD075
:1011800030F0004C18BF31F0004CD8D180EA01009B
:1011900000F00040704790F0000F17BF90F0004F34
:1011A000084691F0000F91F0004F14D092EA0C0F16
:1011B00001D142020FD193EA0C0F03D14B0218BFA9
:1011C000084608D180EA010000F0004040F0FE40EF
:1011D00040F40000704740F0FE4040F4400070478B
:1011E0004FF0FF0C1CEAD0521EBF1CEAD15392EA0A
:1011F0000C0F93EA0C0F69D0A2EB030280EA010CFA
:1012000049024FEA402037D04FF0805343EA111192
:1012100043EA10130CF000408B4238BF5B0042F1F0
:101220007D024FF4000C8B4224BF5B1A40EA0C0095
:10123000B3EB510F24BFA3EB510340EA5C00B3EBC7
:10124000910F24BFA3EB910340EA9C00B3EBD10FB5
:1012500024BFA3EBD10340EADC001B0118BF5FEA07
:101260001C1CE0D1FD2A3FF650AF8B4240EBC25030
:1012700008BF20F0010070470CF0004C4CEA5020F1
:101280007F32C2BFD2F1FF0340EAC250704740F440
:1012900000004FF00003013A37E792F0000F00F032
:1012A000004C02BF400010F4000F013AF9D040EAB0
:1012B0000C0093F0000F01F0004C02BF490011F444
:1012C000000F013BF9D041EA0C0195E70CEAD1533C
:1012D00092EA0C0F08D142027FF47DAF93EA0C0F23
:1012E0007FF470AF084676E793EA0C0F04D14B0207
:1012F0003FF44CAF08466EE730F0004C18BF31F0B9
:10130000004CCAD130F000427FF45CAF31F00043B2
:101310007FF43CAF5FE700BF4FF0FF3C06E000BF4B
:101320004FF0010C02E000BF4FF0010C4DF804CD6E
:101330004FEA40024FEA41037FEA226C18BF7FEA7E
:10134000236C11D001B052EA530C18BF90EA010F80
:1013500058BFB2EB030088BFC81738BF6FEAE1700F
:1013600018BF40F0010070477FEA226C02D15FEAAB
:10137000402C05D17FEA236CE4D15FEA412CE1D017
:101380005DF8040B704700BF844608466146FFE7DE
:101390000FB5FFF7C9FF002848BF10F1000F0FBDC0
:1013A0004DF808EDFFF7F4FF0CBF012000205DF8B9
:1013B00008FB00BF4DF808EDFFF7EAFF34BF01203E
:1013C00000205DF808FB00BF4DF808EDFFF7E0FFD7
:1013D00094BF012000205DF808FB00BF4DF808ED28
:1013E000FFF7D2FF94BF012000205DF808FB00BF8B
:1013F0004DF808EDFFF7C8FF34BF012000205DF86D
:1014000008FB00BF4FEA4002B2F1FE4F0FD34FF08E
:101410009E03B3EB12620DD94FEA002343F0004361
:1014200010F0004F23FA02F018BF404270474FF00F
:101430000000704712F1610F01D1420205D110F096
:10144000004008BF6FF0004070474FF00000704749
:101450007BB972B90029BEBF00204FF0004106E001
:1014600008BF00281CBF6FF000414FF0FF3000F0B4
:1014700057B8ADF1080C6DE904CE002909DB002B4B
:101480001ADB00F069F8DDF804E0DDE9022304B0BE
:101490007047404261EB4101002B1BDB00F05CF820
:1014A000DDF804E0DDE9022304B0404261EB4101D4
:1014B000524263EB43037047524263EB430300F035
:1014C0004BF8DDF804E0DDE9022304B0404261EBB3
:1014D00041017047524263EB430300F03DF8DDF8F1
:1014E00004E0DDE9022304B0524263EB430370479A
:1014F00053B94AB9002908BF00281CBF4FF0FF317B
:101500004FF0FF3000F00CB8ADF1080C6DE904CEDF
:1015100000F022F8DDF804E0DDE9022304B07047B2
:10152000704700BF10F8012B11F8013B012A28BFBA
:101530009A42F7D0D01A7047034611F8012B03F8EE
:10154000012B002AF9D17047034613F8012B002A1A
:10155000FBD1181A013870472DE9F04786468C46B2
:101560000846089E154674461946002B40F0C18077
:101570008542B2FA82F245D94AB1C2F1200300FA9B
:1015800002FC954094402EFA03F343EA0C0C4FEA18
:10159000154EA8B2230CBCFBFEF80EFB18CC08FBC2
:1015A00000F943EA0C43994528D9EB1808F1FF37B5
:1015B00004D2994502D9A8F102072B44A3EB0903F1
:1015C000A4B2B3FBFEFC0EFB1C330CFB00F044EAA0
:1015D0000344A04214D92C190CF1FF3304D2A042C9
:1015E00002D9ACF102032C44241A43EA07401EB18D
:1015F000D440002334607360BDE8F0874746DDE7E0
:101600006346F1E792BB431B01214FEA154EAFB28F
:10161000200CB3FBFEFC0EFB1C330CFB07F840EA6E
:101620000343984561D9EB180CF1FF3004D298457B
:1016300002D9ACF102002B44A3EB0803A4B2B3FB24
:10164000FEFC0EFB1C330CFB07F744EA0344A742E5
:101650004DD92C190CF1FF3304D2A74202D9ACF1B9
:1016600002032C44E41B43EA0040C0E7C2F120031C
:101670009540944020FA03F12EFA03F34FEA154EF9
:101680009040AFB20343B1FBFEFC0EFB1C10190CE3
:101690000CFB07F841EA0041884522D969180CF192
:1016A000FF3004D2884502D9ACF102002944A1EBF5
:1016B00008019BB2B1FBFEFC0EFB1C110CFB07F7F3
:1016C00043EA01439F420ED9EB180CF1FF3104D2DB
:1016D0009F4202D9ACF102012B44DB1B41EA0041DD
:1016E00093E76046E3E76146F7E76046A4E76346B1
:1016F000B8E7834206D916B9002108467CE7C6E957
:1017000000E0F9E7B3FA83F78FB9834201D372455A
:1017100008D8BEEB020460EB030301209C461EB90F
:10172000002169E73846FAE7C6E9004CF8E7C7F157
:10173000200CBB400EFA07F522FA0CF42EFA0CF13D
:10174000BA401C4320FA0CF3B8404FEA1449014355
:101750001FFA84FEB3FBF9F809FB18300B0C08FBE9
:101760000EFA43EA00439A4540D9E31808F1FF30E6
:1017700004D29A4502D9A8F102002344A3EB0A033C
:1017800089B2B3FBF9F809FB183308FB0EFE41EAF6
:1017900003418E452CD9611808F1FF3304D28E45E0
:1017A00002D9A8F10203214443EA0040A1EB0E0153
:1017B000A0FB02984145CE46434602D306D14D4593
:1017C00004D20138B9EB020E68EB0403002EA7D057
:1017D000B5EB0E0261EB030101FA0CFC22FA07F3F0
:1017E000F9404CEA0303C6E9003199E74046C5E7F2
:1017F0004346D9E7000000002DE9F04704460F46B4
:10180000164688B010F055F94FF47A75A0FB050C18
:1018100047F6122205FB01C10023FFF769FE012FE5
:1018200080460D4607D102460B46204626490DF05C
:101830002BF9002011E0766824483146FFF772FE4C
:1018400070B131462248FFF76DFE48B1204632465E
:1018500020490DF035F96FF0040008B0BDE8F087BD
:10186000404617A3D3E900232946FFF7F1FD0646BA
:101870000D4610461946184A0023FFF7E9FD804639
:101880000F46104619464EF660220023FFF7E0FD92
:1018900082468946104619464FF47A720023FFF7B4
:1018A000D7FDCDE902A9CDE90623CDE904013246F1
:1018B0002B462046CDE9008708490DF0E5F8B8E74A
:1018C000005C260500000000B94E0100CA4E010070
:1018D000CD4E0100D64E010080EE3600EE4E0100E6
:1018E0002DE9FF4721F00042AF4F04460D46BA42B2
:1018F0004FEAD17632D9AD4FBA4216D894A3D3E984
:101900000023FFF709FA074610BB2046294692A399
:10191000D3E90023FFF7E2F9002800F09E80384663
:1019200004B0BDE8F04710F059BDC1F313030246FF
:10193000034305D00B46FEF7A9FD04460D4602E021
:10194000002E40F0FF802046294604B0BDE8F08715
:10195000002004B0BDE8F0470CF006BB944B9A425F
:1019600040F2A780934B9A4277D8934BF400C6F18C
:10197000010A03EBC603AAEB060AD3E90023FEF72C
:1019800083FD8E4B804689462344D3E90034CDE95C
:101990000034DDE9002340464946FEF775FD044664
:1019A0000D4622462B4620462946FEF725FF0646D1
:1019B0000F466BA3D3E90023FEF71EFF6AA3D3E90A
:1019C0000023FEF761FD32463B46FEF715FF68A394
:1019D000D3E90023FEF75AFD32463B46FEF70CFFE3
:1019E00065A3D3E90023FEF74FFD32463B46FEF7E1
:1019F00003FF63A3D3E90023FEF748FD32463B46CD
:101A0000FEF7FAFE02460B4620462946FEF73CFD4D
:101A100002460B4606460F4620462946FEF7ECFED8
:101A2000CDE90201BAF1000F5AD100224FF08043F4
:101A300030463946FEF728FD02460B46DDE9020135
:101A4000FFF704F822462B46FEF71EFD02460B4622
:101A500000205B49FEF718FD6FE75A4B20462946E8
:101A600003EBC60648A3D3E90023FEF7C5FED6E97B
:101A70000023FEF70BFDFFF759F98246FEF752FEF1
:101A800006460F4642A3D3E90023FEF7B5FE024601
:101A90000B4620462946FEF7F7FC8046894630462D
:101AA00039463DA3D3E90023FEF7A6FECDE90001A8
:101AB0006FE7454B9A420ED839A3D3E90023FEF7CE
:101AC000E5FC00223E4BFFF727F938B100223C4BE2
:101AD000204629462FE74FF0000A62E7824660E77A
:101AE00032463B4600204FF08041FEF7CDFC0246D7
:101AF0000B46DDE90201FEF7A9FF02460B46DDE9D0
:101B00000001FEF7C1FC42464B46FEF7BDFC0B460A
:101B100002462B490020FEF7B7FC0B466FF47F719D
:101B200006468A4503DB344603EB0A550BE70AF504
:101B30007A7A3046002203EB0A514FF0B873FEF771
:101B40005BFEFAE600240025FDE600BFAFF300804F
:101B5000EF39FAFE422E864051302DD5104987C00C
:101B6000D0A4BE726937663EF16BD2C541BDBB3EA3
:101B70002CDE25AF6A56113F93BDBE166CC1663F81
:101B80003E5555555555C53FFE822B654715F73FC8
:101B90000000E0FE422EE63F763C7935EF39EA3D23
:101BA0009C7500883CE4377E412E8640FFFFEF7F26
:101BB000422ED63FB1A2F03FC82E0100B82E010040
:101BC0000000F03FD82E0100FFFFEF3D00000000B5
:101BD00030F0004201462DE9F84F034604D10120C0
:101BE000BDE8F84F0CF0CCB9002803DABDE8F84F97
:101BF0000CF0CEB9B0F1FF4F03DBFFF735F9BDE8CC
:101C0000F88FB0F5000F35DA4FF09841FFF734FA4E
:101C10006FF018020346C3F31604DE15764B4FF03F
:101C20007E517F3E2344164403F4000006EBD35656
:101C300080F07E502043FFF715F904F10F026F4B3F
:101C400005461340002B3ED10021FFF7A9FB98B1B8
:101C5000002E00F0C8803046FFF7BAF96849054603
:101C6000FFF70AFA044667492846FFF705FA0146D6
:101C70002046C2E70022CEE75DA1D1E90001FFF7CF
:101C80009DF82946FFF7F8F901464FF07C50FFF721
:101C9000E9F8044629462846FFF7EEF901462046B2
:101CA000FFF7EAF904460EB921466FE03046FFF728
:101CB0008FF907465249FFF7DFF952490646384681
:101CC000FFF7DAF972E04FF08041DFF83CB1FFF73F
:101CD000CBF801462846A344FFF782FA81463046F6
:101CE000FFF776F9494680464846FFF7C5F90146B1
:101CF0008246FFF7C1F945490746FFF7BDF9444958
:101D0000FFF7B2F83946FFF7B7F94249FFF7ACF8E9
:101D10003946FFF7B1F94049FFF7A6F85146FFF7FA
:101D2000ABF93E4982463846FFF7A6F93C49FFF732
:101D30009BF83946FFF7A0F93A49FFF795F839467D
:101D4000FFF79AF901465046FFF78EF8C4F557138E
:101D5000074603F5227343EA0B03002B30DD4FF0F7
:101D60007C512846FFF788F92946FFF785F9014697
:101D700004463846FFF778F84946FFF77DF90746ED
:101D800046B901462046FFF76DF801462846FFF7A1
:101D900069F834E71A494046FFF76EF919490646D3
:101DA0004046FFF769F93946FFF75EF801462046DD
:101DB000FFF758F82946FFF755F801463046E6E7A1
:101DC00001462846FFF74EF84946FFF755F9044605
:101DD000002E3FF469AF0A494046FFF74DF9094923
:101DE000064640466CE7002009E700BFAFF30080DD
:101DF000555555555555D53F20FB4A00F0FF7F00FE
:101E00008071313FD1F71737305CCFFF9788173E8D
:101E100025333A3E2549923EABAA2A3F4FD01C3E7D
:101E2000298E633ECDCCCC3E10B54368124A23F0D8
:101E3000FF03934215D18468012C1BD10F480FF08A
:101E400093FBB8B121460E480CF0C5F8002140F6CE
:101E500035400FF078FD00210948BDE810400CF036
:101E6000BAB8084A934205D181680748003918BFBB
:101E70000121F2E710BD00BF00010B00AC260100FC
:101E8000E82E010000010200F02E01001FB51B49E1
:101E90001B480CF050FA1B4A1B491C480CF04BFA2B
:101EA0001B4801210CF097F8002005F0CFFB18B972
:101EB00018480CF040FA0CE000230193039301232F
:101EC000694602930CF0A6FA011E06DA12480CF0DD
:101ED00032FA002005B05DF804FB029B9B07FCD1A1
:101EE000039909B10D48F2E70D4B0E48D3F8403382
:101EF0001C2B02BF01220C4B1A63DAE7583E01008B
:101F0000773E0100993E0100A23E0100AE3E010075
:101F1000F82E0100BE3E0100DF3E0100F93E010047
:101F200000C0FF00193F010000E01050012910B56A
:101F30000C4603D10CF011FE204610BD022906D933
:101F4000126806490CF0BCFD6FF01500F5E702D1F0
:101F500052680349F6E70020EFE700BF2C3F01007D
:101F6000463F0100012910B50C4603D10CF0F5FDE8
:101F7000204610BD022906D9126806490CF0A0FDC2
:101F80006FF01500F5E702D152680349F6E700202B
:101F9000EFE700BF5C3F0100463F0100012910B59B
:101FA0000C4603D10CF0D9FD204610BD022906D9FC
:101FB000126806490CF084FD6FF01500F5E702D1B8
:101FC00052680349F6E70020EFE700BF5C3F0100DD
:101FD000773F0100012938B505460C4603D10CF0C6
:101FE000BCFD204638BD022906D912680C490CF008
:101FF00067FD6FF01500F5E7506810F06FF8502896
:10200000024604D9284607490CF05AFDF1E7064B71
:102010000649D87028460CF037FD0020E2E700BFE3
:102020002C3F01008E3F010088010020B03F0100DD
:10203000012938B505460C4603D10CF08EFD20462B
:1020400038BD022906D912680C490CF039FD6FF031
:102050001500F5E7506810F041F85028024604D901
:10206000284607490CF02CFDF1E7064B064918718C
:1020700028460CF009FD0020E2E700BF2C3F0100DC
:102080008E3F010088010020CA3F0100012938B5B8
:1020900005460C4603D10CF060FD204638BD0229F0
:1020A00006D912680C490CF00BFD6FF01500F5E72E
:1020B000506810F013F86328024604D928460749EF
:1020C0000CF0FEFCF1E7064B0649986028460CF040
:1020D000DBFC0020E2E700BF2C3F0100E23F0100F3
:1020E000880100200A4001000F2208B5034B044973
:1020F0005A70044A0CF0C8FC002008BD880100207A
:102100004340010021400100062208B5034B044969
:102110005A70044A0CF0B8FC002008BD8801002069
:102120004340010052400100052208B5034B044919
:102130005A70044A0CF0A8FC002008BD8801002059
:10214000434001006F400100042208B5034B0449DD
:102150005A70044A0CF098FC002008BD8801002049
:10216000434001008C400100032208B5034B0449A1
:102170005A70044A0CF088FC002008BD8801002039
:1021800043400100A54001000A2208B5034B044961
:102190005A70044A0CF078FC002008BD8801002029
:1021A00043400100BE400100092208B5034B044929
:1021B0005A70044A0CF068FC002008BD8801002019
:1021C00043400100DE400100012208B5034B0449F1
:1021D0005A70044A0CF058FC002008BD8801002009
:1021E00043400100FE40010010B50024034B044AA7
:1021F00004495C700CF048FC204610BD88010020AA
:102200001741010043400100D222034B03499A7059
:102210006FF02D020CF038BC880100203041010025
:10222000D822034B03499A706FF027020CF02CBCA4
:102230008801002030410100E422034B03499A70D9
:102240006FF01B020CF020BC88010020304101001F
:10225000EA22034B03499A706FF015020CF014BC8C
:102260008801002030410100EC22034B03499A70A1
:102270006FF013020CF008BC88010020304101000F
:10228000EE22034B03499A706FF011020CF0FCBB75
:102290008801002030410100F022034B03499A706D
:1022A0006FF00F020CF0F0BB8801002030410100FC
:1022B000F222034B03499A706FF00D020CF0E4BB5D
:1022C0008801002030410100F422034B03499A7039
:1022D0006FF00B020CF0D8BB8801002030410100E8
:1022E000F622034B03499A706FF009020CF0CCBB45
:1022F0008801002030410100F722034B03499A7006
:102300006FF008020CF0C0BB8801002030410100D2
:10231000F822034B03499A706FF007020CF0B4BB2C
:102320008801002030410100F922034B03499A70D3
:102330006FF006020CF0A8BB8801002030410100BC
:10234000FA22034B03499A706FF005020CF09CBB14
:102350008801002030410100FB22034B03499A70A1
:102360006FF004020CF090BB8801002030410100A6
:10237000FC22034B03499A706FF003020CF084BBFC
:102380008801002030410100FD22034B03499A706F
:102390006FF002020CF078BB880100203041010090
:1023A000FE22034B03499A706FF001020CF06CBBE4
:1023B0008801002030410100FF22034B03499A703D
:1023C0004FF0FF320CF060BB88010020304101006B
:1023D0000022024B02499A700CF056BB8801002083
:1023E000304101000122024B02499A700CF04CBBB3
:1023F00088010020304101000222024B02499A70FC
:102400000CF042BB88010020304101000322024B46
:1024100002499A700CF038BB88010020304101005D
:102420000422024B02499A700CF02EBB8801002056
:10243000304101000522024B02499A700CF024BB86
:1024400088010020304101000622024B02499A70A7
:102450000CF01ABB88010020304101000722024B1A
:1024600002499A700CF010BB880100203041010035
:102470000822024B02499A700CF006BB880100202A
:1024800030410100022208B5034B04491A70044A86
:102490000CF0FAFA002008BD880100205D4101001F
:1024A00043410100012208B5034B04491A70044A54
:1024B0000CF0EAFA002008BD880100205D4101000F
:1024C0007741010010B50024034B044A04491C70F5
:1024D0000CF0DAFA204610BD88010020914101007D
:1024E0005D41010037B5264D264904460CF0CCFA73
:1024F0006A780F2A3CD8DFE802F02D2F3B313335C4
:10250000373B3B082B3B3B3B3B391F4A1F4920468F
:102510000CF0BAFA95F9022020461D490CF0B4FAE5
:102520002A78012A26D0022A26D03ABB194A1A490B
:1025300020460CF0A9FAEB6820460193AB681749D6
:1025400000932B79EA780CF09FFA002003B030BD9D
:10255000134ADBE7134AD9E7134AD7E7134AD5E70B
:10256000134AD3E7134AD1E7134ACFE7134ACDE71B
:102570001349CCE7134ADAE7134AD8E71349D7E7F8
:1025800088010020A9410100DE4001004340010014
:1025900030410100914101005D410100FF41010016
:1025A000BE40010017410100FE400100A5400100AE
:1025B0008C4001006F4001005240010021400100A9
:1025C000B64101007741010043410100DD410100B6
:1025D00008B5044B187800F011FE0020024B18706B
:1025E00008BD00BFC817002078230020104B10B58D
:1025F000002104460E2218460FF068FD042203460F
:1026000003F8022C0B4B02385A784270DA780271C8
:102610001A799B684271836000F0FAFC0122064B34
:10262000204606491A700CF02FFA002010BD00BF9A
:10263000CA17002088010020782300205A42010098
:10264000104B10B50E220446002118460FF03EFD37
:102650000322034603F8022C0B4B02385A78996880
:1026600042701A795B8881608380827100F0D0FCAF
:102670000122064B204606491A700CF005FA00208C
:1026800010BD00BFCA170020880100207823002059
:102690006442010001480BF04EBE00BF6E420100D3
:1026A0007FB5002301A8CDE90133039300F0B8FD05
:1026B0001A4B039E1C690CB1A64204D918480BF0B2
:1026C0003AFE04B070BDA01BFEF77EFC0546204616
:1026D000FEF77AFC01462846FEF782FD1149FEF717
:1026E000CBFC054610480BF026FE31460F480BF098
:1026F00022FE21460E480BF01EFE2846FEF724F867
:1027000002460B460B480BF016FE28460A49FEF718
:1027100065FE0028D5D00948D1E700BF8801002018
:102720008D4201000000C842A8500100A6420100ED
:10273000C6420100E742010000002041FB420100C7
:1027400030B50446002585B001A8CDE901550395B3
:1027500000F066FD204608490CF096F9DDE901120B
:1027600020460CF0BBF92046039A04490CF08CF982
:10277000284605B030BD00BF2043010033430100AF
:10278000014800F0CFBD00BFC817002013B50C4BA7
:1027900004465B780F2B11D10B390F290ED91A2360
:1027A000084A009308490B230CF06EF90B222046CF
:1027B000064902B0BDE810400CF066B902B010BD89
:1027C00088010020214001004A43010080430100AC
:1027D00070B5104E044633780F4D23B1287800F0C1
:1027E0000DFD002333700D4E2046F178FFF7CEFF2C
:1027F0001022002108480FF069FC737806486B70BE
:102800007388AB8000F004FC204605490CF03CF9CD
:10281000002070BD78230020C81700208801002008
:10282000934301002DE9F041214C05462378884669
:1028300017462BB11F4B187800F0E0FC00232370E3
:102840001D4E2846F178FFF7A1FFB8F1020F08D915
:1028500028463A6819490CF033F96FF01500BDE8C5
:10286000F081174B0E22184600210FF02FFC012299
:102870007378B8F1020F00F8013CB378A0F10204BC
:102880002371F37800F8022CA3713378637105D1BA
:1028900078680FF023FC0B4BA060E360054800F064
:1028A000B7FB284608490CF0EFF80020D7E700BF37
:1028B00078230020C8170020880100205C3F010019
:1028C000CA17002095260000A9430100012938B548
:1028D00005460C4603D10CF040F9204638BD0229CC
:1028E00006D9126818490CF0EBF86FF01500F5E7FF
:1028F00050680FF0F3FB5A2804D9284613490CF00E
:10290000DFF8F2E7124CE178E0602846FFF73EFF7F
:10291000104B0E22002118460FF0D8FB052203466B
:1029200003F8022C637802384370A378037123788C
:102930004371E3788371E368836000F069FB0122EF
:10294000054B00201A70C9E75C3F0100C943010034
:1029500088010020CA170020782300202DE9F041CB
:10296000214D04462B78884617462BB11F4B18780B
:1029700000F044FC00232B70B8F1020F08D9204668
:102980003A681B490CF09CF86FF01500BDE8F08127
:10299000184E2046F178FFF7F9FE174B0E22184625
:1029A00000210FF093FB02227378904500F8013C60
:1029B000F378A0F102056B71337800F8022C2B71CB
:1029C0000CD178680FF08AFB0C4B3061A860EB608B
:1029D00020B920460A490CF073F8D5E7034800F007
:1029E00017FB0020D2E700BF78230020C817002083
:1029F000EF43010088010020CA170020A126000033
:102A00000744010000224FF0FF310B4BC3F80024B4
:102A1000C3F89014C3F82022D3F8202201221A61AF
:102A2000D3F82022002AFBD00022C3F82022D3F8BA
:102A30002032024B1A70704700A008507923002002
:102A400010B5FFF7DFFF044B1B6823B11B6813B100
:102A5000BDE81040184710BDD817002073B5124BC1
:102A6000124C187020460D460EF042FC23680026DA
:102A7000D3F800224FF0FF32C3F800622946C3F8B2
:102A80000823204607F0AAF80123024600932046B7
:102A90004FF0011331460EF04EFC204602B0BDE867
:102AA00070400EF01FBC00BF7C2300209C01002062
:102AB00000F12E0310B50446362B5ED8DFE803F094
:102AC000645D5D5D5D5D1C5D5D5D5D5D5D5D5D5D70
:102AD0005D5D2F5D5D5D5D5D625D625D315D335DA0
:102AE000355D375D393B3D3F41434547494B604D7F
:102AF0004F51535557595B004FF49873244AC2F80D
:102B00001037244B1B78002B41D1214622480BF073
:102B100012FC2146BDE8104020480BF00CBC0123FC
:102B2000ECE70323EAE70423E8E70523E6E70623C7
:102B3000E4E70723E2E70823E0E70923DEE70A23C7
:102B4000DCE70B23DAE70D23D8E70F23D6E71123C1
:102B5000D4E71323D2E71523D0E71B23CEE71F23A7
:102B6000CCE72323CAE72823C8E72D23C6E733236E
:102B7000C4E73923C2E73F23C0E709480BF0DBFB7A
:102B80001823BBE70223B9E74FF48873B6E710BDFB
:102B900000A008507B230020994D0100BE4D01008C
:102BA0005A4D01001FB501240022444BA142C3F835
:102BB0000447C3F8442EC3F8482EC3F83C2EC3F88C
:102BC000404E2AD0022922D0002959D1AB22C3F885
:102BD000342E4FF0AB32C3F82C2E0023CDF8053045
:102BE000CDF80130FF238DF808304FF48273ADF833
:102BF0000A30012304388DF80C300B285BD8DFE84D
:102C000000F05541415A5A55555A5A5A5A11CC2238
:102C1000C3F8342E4FF0CC32DDE76A22C3F8342EED
:102C2000274AD8E702238DF805307F238DF8083036
:102C30000023ADF80A308DF80C308523214A13802B
:102C40009DF807309DF804205B0743EA82539DF806
:102C5000052043EA0263194A43F00803C2F8203E04
:102C60009DF80A309DF80B101B0443EA01639DF8A0
:102C700008100B439DF80C1043EA4163C2F8283E4C
:102C800004B010BD40F20233ADF80430032340F22B
:102C900003128DF80730ADF80A30084BC3F8442E04
:102CA0000022C3F8482E4FF48B73C7E78DF8053028
:102CB00040F20713C2E74FF48373BFE700A0085048
:102CC0001B81FE586823002038B504460D46FFF7E7
:102CD00069FF0F2C14BFFF237E230C4C012D2370A2
:102CE00010D0022D08D01DB9FF21601C0CF08BFE06
:102CF000074BC3F8D04E38BDFF22CC21601C0FF02B
:102D0000E5F9F5E7FF22F021F8E700BF7D24002078
:102D100000A008500F280DD1A1F10B030F2B0CD8E8
:102D200001EB810101F62E11054BA1F51661C3F8E7
:102D30000817704701F51661F6E740F66511F3E7ED
:102D400000A0085010B5224CD4E8EF3F23F48032A5
:102D5000C4E8E12F0029F7D1D80303D51D4B18682B
:102D60000EF030F8D4E8EF3F23F00402C4E8E12F7E
:102D70000029F7D1590705D517480EF023F8174851
:102D80000EF020F8D4E8EF3F23F01002C4E8E12F62
:102D90000029F7D1DA0605D50F480EF013F81048D0
:102DA0000EF010F8D4E8EF3F23F48072C4E8E12F6E
:102DB0000029F7D1DB050AD5064B186800F5A0708D
:102DC0000EF000F8BDE8104004480DF0FBBF10BD48
:102DD000DC1700209C0100200071085000A0085062
:102DE00004A0085038B50546164CFFF7ABFF216824
:102DF00015480DF0F5FF2168FDB114480DF0F0FF06
:102E000004220123124D9340D5E8EF2F1A43C5E861
:102E1000E12F0029F8D10F4B216818680DF0E0FF71
:102E2000D5E8EF3F43F48033C5E8E23F002AF7D10D
:102E30002068BDE8384005F0F7BF07480DF0D0FF27
:102E40000222DEE7E01700200071085004A00850BD
:102E5000DC1700209C01002000A0085038B5044673
:102E600015460846FFF7CEFD0F2C08BF0222104B77
:102E7000C3F8004508BFC3F81028D3F8002442F077
:102E80000102C3F80024FFF713FE2046094C29462F
:102E9000FFF740FF237843B10020FFF7A3FF23781B
:102EA0001BB1054B01221A6038BD014BFAE700BF88
:102EB00000A008507B2300200070085038B5002483
:102EC0000A4D0B4B28461C700EF012FA28460EF0E5
:102ED00016FA084B1C70084B186805F0CDFFFFF779
:102EE00031FFBDE83840FFF78DBD00BF9C010020D9
:102EF0007A2300207B230020E01700202DE9F041F9
:102F000005460F4610461E46FFF77CFD0F2D08BFF5
:102F100002231B4C0146C4F8005508BFC4F8103802
:102F2000D4F80034284643F02103C4F80034154B8C
:102F3000C4F8D03EFFF736FE002239462846FFF798
:102F4000E9FE114B1A604FF40063C4F888340F4C4B
:102F500023787BB10120FFF745FF237853B101228D
:102F60000B4B1A6056B1BDE8F0410023094A0A48EC
:102F700007F02EBE0122024B5A60F3E7BDE8F08154
:102F800000A008507D230020E41700207B230020B0
:102F900000700850B4C4040060000020B0F5A07FA9
:102FA00010B50C4619D10978032917D10122154B08
:102FB00060781A70144B94F904101A78FFF74EFFDA
:102FC0006279A07900210F4B19700F490B780133FA
:102FD000DBB2834298BF1A460A7010BD04290CD197
:102FE0000122084B08491A70607822790023097879
:102FF000FFF784FF22796079E4E70448BDE81040D8
:103000000BF099B97B2300207C230020E04D0100C8
:103010002DE9F3410378052B0AD8DFE803F0030F0D
:1030200051585D60427990F904104078FFF716FF1F
:103030000122694B1A7002B0BDE8F081447890F922
:10304000046085794079FFF7DDFC01462046FFF7F3
:103050003BFE062C614B10D8D3F8002442F001024D
:10306000C3F800240022C3F81C22D3F81C228022BB
:10307000C3F88824C3F8004514E00F2CECD1D3F832
:10308000002442F00102C3F800240022C3F81C22ED
:10309000D3F81C228022C3F888240222C3F80045FA
:1030A000C3F810283046FFF703FD002229462046CA
:1030B000FFF730FE4A4B1A600122484B1A60B7E70F
:1030C0008368027941794078FFF718FFB0E781689B
:1030D0004079FFF7C3FCABE781680079F9E74678F0
:1030E0004479856890F904808779FFF78BFC304636
:1030F0002146FFF7E9FD0F2E08BF0223374C40465B
:10310000C4F8006508BFC4F81038D4F8003443F49C
:10311000002343F00103C4F80034FFF7C9FC304634
:1031200000263946FFF7F6FDC4F81C62D4F81C32BD
:1031300080232C4AC4F888342B4B12881B5CC5F1C1
:10314000640453435C43B4FBF5F4284D1C44284607
:103150000EF0CEF83046FFF745FE2B682146D3F837
:1031600000224FF0FF32C3F800622846C3F808235C
:1031700006F014FD022302460121284600960EF0B7
:10318000DAF8EFF31186202383F31288BFF36F8FF1
:103190000122174B174C1A60206805F06DFEFFF7EF
:1031A000D1FD2868216800F5A2700DF019FE216894
:1031B0000A480DF015FE104BD3E8EF1F41F4807163
:1031C000C3E8E21F002AF7D1206805F02DFE86F340
:1031D0001188BFF36F8F2BE77923002000A00850E0
:1031E000E8170020682300203D4E01009C010020CC
:1031F00000700850E0170020DC170020064B1B78F9
:1032000043B100F0FB00012802D1044B1870704755
:10321000FFF754BE704700BF792300207A230020B7
:10322000084B094AD3F8003503F00F030F2B14BFE6
:103230004FF480737F23C0E90023044B1B68836035
:10324000704700BF00A008507D230020E417002035
:1032500010B50E4A1368013313608268934208D197
:103260000378012B05D1FFF7CDFBBDE81040C36803
:103270001847074B1B781BB1BDE81040FFF71EBE77
:103280000378012B04BF034A936010BDE8170020A8
:103290007A23002000A0085038B51F4B0546D3F80C
:1032A0008824110516D5D3F82C229AB10022C3F830
:1032B0002C221A4AD3F82C32136801331360826827
:1032C00042B193420CBF002240F63542002314481D
:1032D00007F07EFC104CD4F888341A060AD5D4F8CE
:1032E0001C323BB100232846C4F81C32D4F81C32EF
:1032F000FFF7AEFFD4F888345B060CD5D4F818324B
:103300004BB10023C4F818322846D4F81832BDE86F
:103310003840FFF79DBF38BD00A00850E4170020DB
:103320006000002030B5044687B01A480DF06AFDF1
:103330004FF40073184A03A9CDE903230546174A41
:10334000174805940DF0BAFF014610B115480AF070
:10335000F2FF0022062185200CF0BAFA0023062194
:10336000114A00938A2023460CF0BAFA8A2003F00F
:10337000C7F8294628460D4A0DF011FD30B10C481A
:103380000AF0D9FF6FF00D0007B030BD094B0C34C7
:103390001C60F9E700A0085040420F009D2F00007C
:1033A0009C010020FA4D010099320000E017002036
:1033B0001B4E0100D817002030B50446EFF31185ED
:1033C000202383F31288BFF36F8F044B0FCB84E865
:1033D0000F0085F31188BFF36F8F30BD800D002083
:1033E00001281FB50C4605D004281ED06FF015002B
:1033F00004B010BD0EF05DFB47F612220023FEF76D
:1034000077F84FF4FA435A43C4E90001A2606846D2
:10341000FFF7D2FF694620460AF05BFF18B90A4B56
:103420000FCB84E80F000020E2E70EF042FB47F6E6
:1034300012220023FEF75CF84FF4FA435A43C4E922
:103440000001A260EFE700BF802B010001287FB5DB
:103450000D462ED18A68184B9A422AD80EF029FBC5
:1034600047F612220023FEF743F86C46134B404206
:1034700002FB03F361EB4101CDE900012046029319
:1034800000F0E2F8294620460AF023FFEFF3118608
:10349000202383F31288BFF36F8F94E80F00084D49
:1034A00085E80F0086F31188BFF36F8F002004B00A
:1034B00070BD6FF01500FAE7FFC99A3B0083FFFF6C
:1034C000800D0020014B1B68184700BFAC01002095
:1034D000014B1860704700BFAC01002030B585B0CB
:1034E00004460D461022002168460EF0EFFD02232F
:1034F0008DF80230044B2A4621466846019309F0B4
:10350000DDFC05B030BD00BFC534000080B5054608
:103510000E461746984607F06BFF03460FF004F877
:103520000446DFF81890424649F8003039463046E4
:10353000A84754F8090002F073FF00BF080000001C
:103540002DE9F84340F26C7344690569E1170135D0
:10355000E41841F10001022D8CBF00230123E41A7D
:10356000C76861F100010029064607F1FF374EDA0E
:103570006FF4C7704FF4C8720023201861F1000186
:10358000FDF766FF244B4FF03C0E03FB0044D6E9E9
:1035900000834FEAE37C99466346022D02468CBFC6
:1035A0006FF002000920B6680544C6FB0E93A9FB24
:1035B0000EC60EFB036640F26D1E9920A3080EFB9B
:1035C00004333B44642745430520B4FBF7F402353C
:1035D000B5FBF0F51B1B114C1CEB080CA2FB0420E7
:1035E00004FB01012B4446EBE87698180C4A41F1A4
:1035F000000380180B4A63F10003A0FB020102FBE9
:10360000031110EB0C0041EB0601BDE8F8834FF409
:10361000C87200232046B3E770FEFFFFB13A0200F4
:103620009405F5FF8051010010B5FFF789FF0024D4
:1036300002460EF079FF0B460249445010461946E7
:1036400010BD00BF0C00000070B51F4B82689A428D
:1036500015DDD0E90016013392FBF3F3012976F171
:1036600000054FEAE3741CDAC91844EB0604C0E90C
:103670000014164901FB03238360012070BD002A5A
:10368000FBDAD0E90041124E9B1A0029B3FBF6F396
:1036900010DA01F100459C4275F100050ADA0020BC
:1036A000ECE7CD439D426FF00045A5EB0605A54133
:1036B000DADAF4E706FB0322E41A61F10001C0E95B
:1036C00000418260D9E700BFFFC99A3B003665C45C
:1036D00000CA9A3B08B500F0B9F801220023094955
:1036E000C0E9002241610849C0E902330A60074984
:1036F00003610A60064A1360064A1360064A1360B3
:1037000008BD00BFA9500100CC010020C801002065
:10371000F4170020F0170020EC1700202DE9F041ED
:1037200007460E46154600F091F8C36804461BB9DB
:1037300043691A78002A41D10023E3606368BB42E1
:1037400056F8232008DB324B6361204600F062F814
:103750004FF0FF30BDE8F081511C616192F80080AC
:10376000B8F12D0FEFD1911C616151782D29A16025
:1037700004D192786AB901336360E4E749B9244B14
:103780004146284663610EF0BDFC0028DDD0C4F838
:103790000880D4F80880284641460EF0B3FCB8F102
:1037A0003A0F636900D070B91B7813B963680133AD
:1037B0006360204600F02EF83F20CBE75A1C4261A0
:1037C0001B788360E5E742783A2A0BD00022226119
:1037D0001B7813B9636801336360204600F01AF860
:1037E000A068B7E718786268094928B9013297429A
:1037F000626004DD56F82230C4E90431EAE7616111
:103800002D7820463A2DD5D100F004F82846A1E7BE
:10381000A95001000168084A084B11604168084A34
:1038200011608168074A1160074AC1681160026926
:103830001A6003F0BDBB00BFCC010020EC170020D4
:10384000C8010020F4170020F0170020004870473E
:10385000B00100202DE9F047058B0446280790466B
:1038600011D4022905F0070540F0CC8020460AF06B
:103870006FFD78B10138218B042811D8DFE800F002
:10388000C2106D85950001290CBF45F0100545F06B
:103890002005258388F31188BFF36F8FBDE8F0877B
:1038A00001F0070AAA4500F0A5800027B9463E4668
:1038B000A368002B00F0BC8041F00801218388F34D
:1038C0001188BFF36F8FA168002900F0BA800D68DE
:1038D000002900F0B680334652462046D1F80480D5
:1038E000C047002D76D02B6829461D46F0E701F031
:1038F00007035A1F012A1BD8002221F00701062BBB
:10390000276889B2C4E9002209D13B4603E0628BF3
:10391000013262831B68002BF9D141F0020120467D
:1039200021830AF015FD00287AD041F0200176E0CD
:10393000042B0AD121F0070189B2204621830AF025
:1039400007FD10B141F020012183218B01F0070A0E
:10395000AA454FD00027B946AAE7236921F00701FD
:1039600041F00601062DD3F8009021832DD1B9F145
:10397000000F3FD041F00801218388F31188BFF385
:103980006F8F20463949C84729E021F00701236994
:1039900041F0040189B2042DD3F804902183E6D0CC
:1039A00000274FF0040A3E4682E721F00701236911
:1039B00041F0050189B2052DD3F808902183D6D0B6
:1039C00000274FF0050A3E4672E700274FF0060A2F
:1039D0003E466DE72B4687E7B9F1000FD1D1EFF3F3
:1039E0001188202383F31288BFF36F8F238B23F07A
:1039F00008032383258BEA062ED525F010032383A5
:103A000005F007056669218B002EBFF670AF002315
:103A10002768C4E9003321F0070141F00101218347
:103A2000218B4FF0000901F0070AAA457FF440AF4F
:103A3000002F9CD041F00801218388F31188BFF347
:103A40006F8F002FC8D03D68394633465246204616
:103A50000AF0AAFC2F46F4E7AB067FF51BAF25F072
:103A60002003238305F0070500E700BFD5E300002E
:103A7000014B0360002070479433010010B50446E9
:103A80000DF042F90349024620460AF0FDFF0020EE
:103A900010BD00BF644E01001346002273B50446FA
:103AA00001920A21586801AA01F0D4FC019D95B940
:103AB00020EAE07447F61226294640F2E7304FF438
:103AC0007A720023C4FB0601FDF712FD0DF03BFFE7
:103AD000284602B070BD2A46204602490AF0F0FF8F
:103AE000019DF5E7904E010008B5034A03490AF02D
:103AF000CBFF002008BD00BF804F0100874F0100B1
:103B0000002307B50090694604488DF8043007F09B
:103B1000CDFD9DF8040003B05DF804FB6BE60000EA
:103B200010B5044604F0A0FF0749024620460AF0FB
:103B3000ABFF204605490AF0A7FF2146044807F0DD
:103B4000CFFD002010BD00BFC94F0100E84F0100AC
:103B5000553B000070B58EB004460D46D0F8A86005
:103B60000DF02CFE03460EF0DFFC214A21491058CF
:103B7000214A002B18BF1A460092204A234684424D
:103B800018BF0A4628461E490AF07EFFD4E90A23D8
:103B9000CDE90023284694F90E30227B19490AF01A
:103BA00073FF06A92022204607F028F8236F02465B
:103BB000154928460AF068FF204605A90DF00CFEBD
:103BC000024628B1284611490AF05EFF0EB070BDCA
:103BD0006422059B2846F11A4A43B2FBF6F2009193
:103BE000CDE901620A4932460AF04EFFEEE700BF16
:103BF00008000000405A0100F44F0100F24F01009C
:103C0000F74F0100035001002F5001004650010002
:103C100073500100F0B50025044691B0294608AF65
:103C20001C2209A80EF052FA134E1A2220213846FF
:103C30000EF04CFA2146114807F052FD07AA4FF446
:103C4000006130460DF0BCFD6423079A2046C2F5A2
:103C500000614B43DB0A05934FF400630097CDE905
:103C60000313CDE9013206492B4632460AF00CFF18
:103C7000284611B0F0BD00BFF0340020853C0000A4
:103C8000C450010070B504460D46D0F8A86088B055
:103C900007A90DF0A1FD024628B128460E490AF0F9
:103CA000F3FE08B070BD20460DF088FD6422079B2E
:103CB0000096F11A4A43B2FBF6F2CDE90131074B07
:103CC000CDE90362002818BF03462246284604496E
:103CD0000AF0DAFEE5E700BF46500100F44F0100AC
:103CE0000D51010038B513460546102200215868D1
:103CF00008F05EFF0446FFF703FF38B92246284666
:103D00000D490AF0DDFE6FF0150038BD0EF00CFC19
:103D10000A4B1B589C4204D1284609490AF0D0FEA0
:103D2000F1E7204607F020F92846224605490AF027
:103D3000ABFE0020E9E700BF715101000800000060
:103D40008C510100B451010038B5134605461022CC
:103D50000021586808F02CFF0446FFF7D1FE38B95F
:103D6000224628460D490AF0ABFE6FF0150038BD1B
:103D70000EF0DAFB0A4B1B589C4204D12846094935
:103D80000AF09EFEF1E7204607F00CFA284622468C
:103D900005490AF079FE0020E9E700BF71510100F2
:103DA00008000000F35101001952010038B5134614
:103DB000054610220021586808F0FAFE0446FFF775
:103DC0009FFE38B9224628460D490AF079FE6FF069
:103DD000150038BD0EF0A8FB0A4B1B589C4204D1BD
:103DE000284609490AF06CFEF1E7204602F018FB6C
:103DF0002846224605490AF047FE0020E9E700BFB1
:103E00007151010008000000545201007952010074
:103E100010B50C4600210BF032F900B10068002308
:103E2000024A2060C4E90123E36010BD99530100F8
:103E300010B50C4600210BF026F900B100680023F4
:103E4000024A2060C4E90123E36010BD99530100D8
:103E500070B50646506815460BF019F9044640B98E
:103E600030466A680F490AF02BFE6FF012042046B4
:103E700070BD0DF079FB30B16A680B4930460AF02D
:103E8000F5FD0024F3E720460DF065FB044630B154
:103E900003466A68304605490AF012FEE7E76A6899
:103EA0000349EBE7B1520100C6520100E85201009C
:103EB000155301002DE9F04F8FB0044601A80F46BD
:103EC000904606F081F9019B082103EB401B2B4A29
:103ED00020460AF0BEFD019D5D4503D300200FB0D2
:103EE000BDE8F08F2E680EB1337833B92B46302100
:103EF000234A02A808F0BAFD02AE022F07D13046CD
:103F0000D8F804100EF039F908B92035E4E7334643
:103F1000082120461B4A0AF09CFD28460DF024FB90
:103F2000194A1A4B0821002808BF13462046184A90
:103F30000AF08FFDEB69002BE7D01E68002EE4D05D
:103F40003368002BE1D008212046124A0AF081FD97
:103F5000B2464FF0000933680F4A4B4505D8082197
:103F600020460E4A0AF075FDCFE7082120465AF890
:103F7000043F0AF06EFD09F10109ECE74853010026
:103F800052530100575301003F53010039530100C0
:103F9000BF5201005C53010058530100A8500100BA
:103FA0001FB50C68D1E9043203944C6801330294C4
:103FB0008C6802F26C720194C968009102490AF09F
:103FC00063FD04B010BD00BFE3530100F7B51378E3
:103FD00006463A2B0F46154614D1541C23783A2B2B
:103FE00028D101340A22204601A908F06BFD019A6C
:103FF0000346A242386017D01078A8B93C2B15D9D7
:1040000015490EE00A22284601A908F05BFD019C33
:10401000B860AC4208D023783A2B05D1172807D9CD
:104020000E4930460AF04CFD6FF0150003B0F0BDAC
:104030000134D3E70A22204601A908F043FD019B81
:104040007860A342F0D01A783A2AEDD13B2801D902
:104050000349E6E75C1CC5E7225401000454010053
:10406000125401002DE9F0410D4690B002A904461A
:1040700001201746FFF7B4F907A902A808F052FC7F
:10408000032D55D17D680A22284601A908F01AFDA2
:10409000019E8046B54215D032782D2A12D10136C4
:1040A0000A22304601A908F00DFD019B9E4209D06D
:1040B0001A782D2A06D1451E0B2D0CD928492046E9
:1040C0000AF0FEFC20460AF048FD6FF01505284670
:1040D00010B0BDE8F0815E1C0A22304601A908F04C
:1040E000F1FC019B9E42EDD01B78002BEAD1431ED0
:1040F0001E2B01D91B49E2E7A8F26C73CDE90B53E3
:10410000BA680A90204607A9FFF760FF0028D9D1B6
:1041100007A8FFF789FAB1F1FF3F08BFB0F1FF3FF1
:10412000CDE9020108D120460F490AF0C9FCCCE7CD
:10413000022DC7D17A68E5E700230493012002A984
:10414000FFF784F9054628B10246084920460AF0DF
:10415000B7FCBAE7204607A9FFF722FFB7E700BF81
:1041600032540100415401004E54010077540100C3
:104170002DE9F04114468846074610220021606868
:1041800008F016FDB8F1020F064606D82022384680
:1041900023490AF079FC326815E00A220021A06860
:1041A00008F006FDC5B22A4638461D490AF06CFCE7
:1041B000B8F1030F19D1102D0CD0202DEBD0082D04
:1041C0000BD13278D2B20023384616490AF05CFC93
:1041D000002008E0328892B2F5E7384612490AF02A
:1041E00053FC6FF01500BDE8F0811022E06800215B
:1041F00008F044FD0B46024604460C4938460AF0D6
:1042000043FC102D06D0202D07D0082DE5D1E4B2B7
:104210003470DDE7A4B23480DAE73460D8E700BF59
:10422000BC540100E7540100D1540100FA540100CC
:1042300000232DE9F04F91464FF0FF35012287B062
:1042400001934F4B074688461A602026FFF742FA33
:104250002C46DFF830A1494652464046FFF75EFA49
:10426000411C06D16A1C41D1474938460AF028FC56
:1042700017E073281AD0772828D0612811D1DFF8E9
:104280000CB11021DBF8000001AA01F0E3F8019B5A
:104290000546002BDFD0DBF800203D4938460AF008
:1042A0000FFC6FF0150007B0BDE8F08FDFF8DCB051
:1042B0000021DBF8000001AA01F0CCF8019B0446C4
:1042C000002BC8D0DBF800203249E7E7DFF8BCB0AC
:1042D0000021DBF8000001AA01F0BCF8019B0646B2
:1042E000002BB8D0DBF800202B49D7E7631C01D1A5
:1042F0002A49BAE75FFA86F8C6F3C406002C3CD018
:1043000002AB28461A46A6EB050C0CE0B8F1100FDC
:104310001DD0B8F1200F20D0B8F1080F28D10178B6
:10432000197030443344A64203D80CEB0001102925
:10433000ECD9102CA14628BF4FF0100929464B4656
:10434000384600F06FFF1035A4EB0904D6E701886A
:1043500089B21970090A5970E3E70168C1F3072EA1
:104360001970090C9970090A83F801E0D970D8E72F
:1043700038460B490AF088FB93E7204693E700BFD5
:10438000C80100204A55010051550100EC170020DA
:104390001055010023550100365501006E550100EE
:1043A000D154010070B5104E04460D46337871B1FA
:1043B00023B10E49BDE870400AF082BB012333707F
:1043C00020460B490AF060FB0123337004E083F0C0
:1043D00001033370002BF3D129462046BDE870401D
:1043E00000220AF0D4BB00BF7D25002088550100C3
:1043F000C35501002DE9F04105460C46DFF8EC807D
:104400003B4E8F18A74201D1BDE8F08198F80020FB
:1044100014F8013B182A22D1112B20D10026354C4B
:1044200028462268344988F800600AF02DFB2846A7
:104430003146FFF7B7FF314B18780028E4D1304AF6
:1044400023681168042B2EDC08B12360116013F07F
:1044500003012FD1126813681BBA1360D4E7A3F1CC
:104460003002092A88F8003004D923F02002413AAA
:10447000052A04D83168234A535401313160336826
:10448000022BBFD1102200211E4808F091FB1E4ACA
:10449000136803F8010B1360164A136801331360A5
:1044A00000233360AEE70868043B00BA41F8040B10
:1044B0000120C7E75B4203F0030358BF59420229BA
:1044C00004D1126813885BBA9BB2C6E703299BD15B
:1044D000106802681104C2F3074301F47F010B4323
:1044E00002F47F42134303608EE700BF7E25002065
:1044F000F8170020FC170020ED5501007F25002053
:104500000018002080250020041800202DE9F84F15
:104510000023064615460C462949DFF8A8800B60A3
:104520002949DFF8A890DFF8A8B088F800300B60C0
:10453000012C2F4655F804AF1ED902224946504699
:104540000DF0EDFD80B99AF80220003A18BF012263
:104550009244504602221F490DF0E1FD30B901237B
:1045600088F80030013CE3E70022F1E74946504675
:10457000FCF7D8FFA8B9043700227868114608F084
:1045800017FB0022144B11461860786808F010FBE6
:10459000124B134918603046FFF704FF0020BDE8B6
:1045A000F88F9AF800202D2AE6D19AF80120002AE7
:1045B000E2D05246594630460AF066FAD2E700BFCA
:1045C000F81700207F250020FC1700200756010067
:1045D0000D5601000A5601000418002000180020A2
:1045E000F543000013B509480CF0BEFF58B1002494
:1045F000074A0123126805490648009400F078FE36
:10460000204602B010BD6FF01200FAE72C2701001F
:10461000B0340100D429010010B54468C4E9001287
:10462000A36042684FF48061134653F8404B5163D6
:104630005362002302F13801C2E904130821C2E9E0
:104640000A33C2E9063313631162C2F87834A368EF
:1046500023B11B6C13B1204604499847A3681B6A19
:104660000BB120469847002010BD00BF4FE7000067
:1046700010B504468168183101F07EF9A168204622
:10468000BDE81040014A183101F00EB9835701000E
:1046900038B583680446D3F87C32DB071AD4406807
:1046A00003685B689847054620B9E0680BF0A6F8F8
:1046B000A3681D75A3685B6C13B129462046984713
:1046C00000220DF031FFA368C3F89C22034B185859
:1046D00001F0A6FE6FF00F05ECE700BF0800000038
:1046E00001490AF0DEB800BFA85001002DE9F04FE3
:1046F000A7B004465422002111A80DF0E7FC0023C6
:10470000CDE90533A36820465A3302930AF0DAFD57
:1047100020460AF01EFD10B96069FFF7E1FF002690
:104720004FF0FF38B246B3463546B146A068142272
:10473000002118300DF0CAFC20460AF065FCA16883
:10474000E068B1F854205A310BF01DF820460BF008
:104750007EF811AF0396DDE90532012A6CD0132BE8
:104760006DD8B8F1000F2BD1BBF1000F0AD0204655
:104770000BF08EF81423A26811A95A320DEB030036
:104780000AF0C2FAB9F1000F0CD099F81130FE2BE3
:1047900008D1059B26AA02EB830252F8542C0AB1D9
:1047A00001330593A068059D436A002B40F0B58056
:1047B000C6B1C3699E422BD00D9600F1180522E0C8
:1047C00002233946029A06A80AF09EFA7A680699E8
:1047D0000346029231B101290AD148B1694A204603
:1047E0000AF01BFE6FF00705284627B0BDE8F08FE2
:1047F000059B002B32D0386801F0F0F898B166B113
:10480000A5680D9618350CAE0FCE0FC533682B601A
:104810002046FFF72DFF0125E6E75B4A01212046F0
:104820000AF0FBFDDEE7059BC3B1294620463A6846
:1048300001F076FA022809D1059B132B94D9069B27
:10484000022B91D10121514B514AC8E7032805D0D1
:10485000059B4FF0010B013305937CE7039B2BB9BC
:104860004846396807AA0AF046FB0546043708F1AE
:10487000FF38A5B3EB68BBF1000F08D0FBB12046B1
:104880000AF020FD20460AF07BFC424AC6E7B3B19D
:10489000AE46A368DDF814A003F1180CBEE80F00C3
:1048A000ACE80F00DEF80030CCF80030AB6833B96C
:1048B0006B7CFE2B04BF95F8108008F1FF38D5F80B
:1048C00004C0BCF1000F08D0AE460CAEBEE80F002D
:1048D0000FC6DEF8003033606646A94603E0059B4C
:1048E00063B101230393069BB8F1000F02D1022BA1
:1048F0007FF431AF059B013305932CE7A368DB6A96
:1049000013B1DB68002BECD1234B0121009320462F
:10491000119B224A0AF081FDE3E790F82830A5EBCD
:104920000A05BBB14FF6FF7290F82910FF2918BF96
:104930000A469D4202D313449D420BD9836901214B
:104940002046174A0AF069FD2046FFF791FE6FF0F6
:10495000150549E7012109F0C3FFA06809F0B4FF7C
:10496000A36811AA29465B6A02EB8A02204698478F
:104970000546A06809F0ACFF0021A06809F0B0FF6F
:1049800032E700BF91570100A5570100065801000A
:104990004E400100C3570100F2570100005B0100C7
:1049A0002A580100F7B5044680680D46D0F87C32DD
:1049B0005A0705D5002109F09EFFE0680AF0B5FE10
:1049C000E368DB6873B9002D3BD0A66806F15A078F
:1049D000384609F073FF002835D0394606F5AD702A
:1049E000FCF7AAFDA2682946E0680DF106035A32D9
:1049F0000AF09EFE58B9A06800F5AD715A30FCF778
:104A00009BFDA0685A3009F059FFADF8060020461A
:104A10000AF051FCA368D3F878329B0603D50B4902
:104A2000606909F03EFF204600F07AFDA268BDF8FB
:104A300006302046A2F85630A268A2F854300AF098
:104A40009FFB03B0F0BD86F85A01CBE7C82B0100ED
:104A5000022210B5836804461A7583689B6CBBB943
:104A600009F0FEFE8368D3F87C32DB040BD503210A
:104A7000084B094A0AF0D1FCA0686FF4805100F598
:104A80001F7009F003FF2046BDE8104000F0CEBEC5
:104A900010BD00BF45580100595301002DE9F04FEA
:104AA000044680680121B1B000F51F7009F0E3FEF3
:104AB000A3681B7D022B28D100230993A36860689B
:104AC000D3E9126703681D6909AB46B310221BA91D
:104AD000A847099BCBB10121A06809F001FFA0689C
:104AE00009F0F2FE3B46099A1BA92046B047A06890
:104AF00009F0EEFE0021A06809F0F2FEA3689B6CAD
:104B0000002BDBD12046FFF7A3FF6FF00101A06867
:104B100000F51F7031B0BDE8F04F09F0B7BE0122BB
:104B20000DF12301A847099B002BEED09DF923200E
:104B30009DF82330002AA068C0DB427D032A00F2E2
:104B4000F482DFE812F0040074028B02F2020D2BF3
:104B500067D00A2B43D0B0F87C22092B6FF3CA022E
:104B6000A0F87C2272D029D8002B00F00381082BFA
:104B7000A06800F0E8810246D2F87812890740F177
:104B8000F980013B162B00F2F580DFE813F0B70245
:104B9000F901FD01F501B1020F02F300F300F3008A
:104BA000F30013021702F3002C02F3003102F300AA
:104BB000F300F300F3003302F30048021B2BA0685C
:104BC00041D07F2B00F0CB81A3F120015E2902466A
:104BD000D2D8012109F08FFE9DF82310B8E0D0F85B
:104BE0007C22C2F3C7022AB1D0F87C22C2F3C702EA
:104BF0000A2AC0D1B0F87C2263F3CA02A0F87C2252
:104C0000A568B5F85410C1B9284609F074FEE068EB
:104C10000AF08BFD6069FFF763FD2046FFF718FF80
:104C20004CE7D0F87C22C2F3C702002AE2D0D0F8C9
:104C30007C22C2F3C7020D2ADBE72046FFF756FDB0
:104C4000C5F8A002E9E70123437593E0A068D0F816
:104C500078329B0740F18E80012109F04CFEA0685C
:104C6000B0F85430FF2B00F085800025B0F85620B6
:104C700000F15A0100F5AD700DF001FAA3681BA90F
:104C8000B3F856200BA8134483F85A51A268142392
:104C900002F5AD720AF038F80B9914296AD830ABD6
:104CA00003EB810343F8545CA368B3F85620002A51
:104CB00052D0134493F85930202B02D0093B042BD7
:104CC0004AD800294BD100250A950A9B30AA02EB4D
:104CD000830353F854AC0026504609F0EFFDB34669
:104CE0008146B04637463946284616AA00F078FB7A
:104CF0000346002842D1012E68D10A9B30AA02EB5C
:104D0000830353F8540C09F0D9FDA26806464146C6
:104D10002846183200F064FB0568284609F0CEFDED
:104D2000864205D0821B92B22046A9190AF0BCFB2C
:104D3000A068B0F85630034493F85A30202B34D092
:104D4000093B042B31D9D0F87832DF0732D4202147
:104D5000204600F033FD0DE00129B4D901390020CF
:104D60000CAB009301900AAB1BAA0AF0EFF80546C2
:104D70000028AAD1606909F015FF9FE61B684A4622
:104D80005146184603930DF0CAF960B9039B1846C3
:104D9000FCF7DAFB584538BF5846002E08BFB84626
:104DA0001FFA80FB013601379DE7012120460AF0FA
:104DB0001BFADFE7002109F0A8FD2021204600F0C2
:104DC000FDFC0121A06809F0A0FDD3E70490D1D932
:104DD0000A9A30AB03EB820252F8543CC1461846A3
:104DE000039309F06BFD049BA2680590A2F8403084
:104DF0000496A26849462846183200F0F1FA039B4F
:104E0000D0F800A009F101094BB1BAF1000F06D0AA
:104E100019465046059A0DF082F90028E9D1A1689B
:104E2000BAF1000F4DD1A1F840A0049B013B0493BF
:104E3000DFD16069FFF754FC204600F0F7FC0A9BC5
:104E400030AA02EB830353F8540C09F037FD4146B6
:104E500011AA8146284600F0C3FA0746A0683968BF
:104E6000FF2200F5AD700DF06CF93B684FF6FF774F
:104E700008F1010AB84603935146284616AA0AF1DA
:104E8000010B00F0ADFA002851D00022A1680368A0
:104E900001F2591111F801EF985C704503D110B17E
:104EA00001324245F6D1B9F1000F01D04A4506DB87
:104EB000BA42A8BF3A46013E012E97B237D0DA4631
:104EC000DAE79B48069109F0F9FC069900EB0B071D
:104ED0004A8FBFB2121A92FBF7F2504692B2079174
:104EE000069209F0EBFC07993F1AB1F84000069AC8
:104EF00000F1010CA1F840C0B0FBF2F102FB11007F
:104F000080B2BFB260B906212046894B894ACDF8EC
:104F100000A00AF082FA3946204600F0EBFA84E756
:104F2000534606212046844A0AF077FAF3E7002F19
:104F30003FF420AF0399A7EB0902204692B24944FF
:104F40000AF0B2FA16E7D0F878329E077FF512AF72
:104F5000012109F0D0FC20460AF0C7FA0AE7D0F890
:104F600078329D077FF506AF012109F0C4FCA368E4
:104F7000D3F878321807EED420460AF097FAF9E60B
:104F800020460AF0A8F9F5E620460AF09BF92046EB
:104F90000AF0DFF810B96069FFF7A2FBA0680121F1
:104FA00009F0A9FC2046FFF753FDE3E620460AF08E
:104FB0009BF9DFE620460AF0A2F9DBE6D2F8783268
:104FC0009F0603D55D49606909F06BFCA368D3F8BF
:104FD00078329E0603D55A49606909F062FC204682
:104FE00000F024FCC6E600212046FFF7DBFCC1E60A
:104FF0000121F9E720460AF05EF9204609F030FC6D
:105000000121A06809F077FCA368D3F878329D06E7
:105010007FF5B0AE4B49606909F043FCAAE6204633
:1050200000F0F8FA0121A06809F065FCA2E65B2B0C
:1050300001D1022308E6D0F87822900706D5622B2A
:1050400008D14FF0FF3120460AF0F7F80022A3689C
:105050005A758FE6662BF9D10121F4E700224275DB
:10506000A268D2F8781289077FF528AD313B1B2B57
:105070003FF680AE01A151F823F000BFF9500000C7
:105080000551000019510000ED500000754D000061
:10509000754D0000754D0000754D0000754D000008
:1050A000754D0000754D0000754D0000754D0000F8
:1050B000754D0000754D0000754D0000F14F00006A
:1050C000E74F0000AD4F0000814F0000754D00001C
:1050D000F1500000754D0000FD500000754D0000BE
:1050E000754D0000754D00000951000003235375F4
:1050F00020460AF0E7F83DE60323537520460AF000
:10510000DAF837E603235375A068D0F8781201F077
:10511000010181F0010156E603235375A368D3F81A
:1051200078329B077FF526AE26E700238CE500BF8B
:105130003F5A01008958010059530100CD2B01004D
:10514000D22B0100C82B01002DE9F34104468068F1
:10515000154600F51F70002935D04FF4804109F045
:105160008AFBA36800211D65606803689B689847F7
:1051700070BB204609F007FC50BB4FF0FF364FF0E4
:10518000FF37154DDFF85480A06800F5207000222D
:105190000721CDE900670CF061FDA06809F098FBDC
:1051A0002A460421204609F0BFFB20464246012141
:1051B00009F0BAFB606803685B6903B19847A068AF
:1051C00009F082FBE0E76FF4804109F05FFBC8E77C
:1051D00002B0BDE8F08100BF914600009D4A00008A
:1051E00010B504460A4909F04FFC2046094909F068
:1051F0004BFC2046084909F047FC2046074909F0C6
:1052000043FC20460021064A00F04EFB002010BD62
:105210008F580100CD5801002C5901008059010020
:105220001B5A0100F8B51E4617460A46294904468E
:1052300009F02AFC3EB320463A78274909F024FCBD
:1052400001256A0703D12046244909F01DFCAE421E
:105250001ED920467A5D204909F016FC0135102D33
:10526000EFD120461E4909F00FFCB6B920461B4974
:1052700009F00AFC0125AE422B4610D820461749FA
:1052800009F002FC15E02046164909F0FDFB012556
:105290002046144909F0F8FBE0E700252B46FA5CAC
:1052A0002046A2F120035F2B28BF2E220E4909F0D1
:1052B000EBFB0135102D06D06B07DCD120460749EA
:1052C00009F0E2FBD7E72046BDE8F840074909F0BE
:1052D000DBBB00BF315A0100385A0100405A0100BF
:1052E000425A01003E5A0100645A0100445A01002A
:1052F0002DE9F041044680688846D0F89C62154646
:105300001F4688B0002E4FD14FF4297231460CF061
:10531000DDFEA06800F520700CF090FCA06800F5A0
:105320002370012211460CF0C9F9A36902211E6005
:10533000A06866F3820500F51F7009F09CFA502200
:10534000A36820465A871822A3681A87216809F0A3
:10535000DDFBA3684146C3F878526068144A0368CD
:105360001D682346A8470546D0B90122A3681A75CF
:10537000D4E9090100220023CDE906230E2303937B
:105380000E9B4FF40062CDE901730495094B009424
:1053900005F0E4FCA368C3F89C02216A05F01EFC3A
:1053A000284608B0BDE8F0816FF07705F8E700BF48
:1053B00061E900004951000010B5044613460A4651
:1053C0000146064801F06CFB23691B7923B1204696
:1053D000BDE8104009F0E6BB10BD00BFBDEB00000A
:1053E00038B50B46154648B91449154A521AB3EB5D
:1053F000920F05D251F82350284638BD84680CB965
:105400000025F9E70F4A94420AD30F4A944207D283
:1054100018462946226890472B68002BECD1EFE70D
:105420000A4A944202D30A4A944205D324681422B9
:105430005343E518E358F0E70133F8E7002A010089
:10544000682A01006C2B0100742B0100682A0100FE
:105450006C2B0100F7B5037804462D2B164605D1B9
:105460006FF015030020336003B0F0BD0DF05CF861
:10547000002305460A4F0A46C35101A9204607F0FA
:1054800097FBEB59222B02D16FF02103EAE7002BA7
:10549000E6D1019BA342E3D01B78002BE4D0DFE7E9
:1054A0000C0000008368D3F878329B0603D50249CC
:1054B000406909F02FBE7047D82B0100014909F05F
:1054C00029BE00BFA85001000A1E0DDC0ED04223E9
:1054D0008168D1F87812890608D5002A0449406904
:1054E000B8BF524209F016BE4123F1E7704700BF32
:1054F000605A01000A1E0DDC0ED044238168D1F8E9
:105500007812890608D5002A04494069B8BF52427A
:1055100009F000BE4323F1E7704700BF605A010065
:105520002DE9F0478568044605F15A00FCF70CF8B0
:105530000023984695F83C70DFF8549086B2A26834
:10554000558FED1BB54209DB002E1FDD5A33606914
:1055500010491A44BDE8F04709F0DCBD1D442A4457
:1055600092F85AA082F85A80A2685A331A444946DF
:10557000606909F0CFFDA3682B4483F85AA0A368A3
:105580005B8FDB1BF61A00272B46D8E7BDE8F087B8
:105590004E4001005953010008290A4617D8836874
:1055A00093F83E10914212D083F83E208368082A77
:1055B000D3F8783205D0990609D50549406909F034
:1055C000A9BD9B0603D50349406909F0A3BD7047F7
:1055D000675A0100DD2B010038B50D4609780446F5
:1055E000FFF7DAFF6A78072A11D8A36893F83F100B
:1055F00091420CD083F83F20A368D3F878329B0601
:1056000005D560690249BDE8384009F083BD38BD61
:10561000705A0100F8B583680446B3F85420002A94
:1056200055D0B3F85610002951D0593103F15A051D
:105630000B441846A84206D3014611F80169202EF2
:105640003CD0A8423CD286B29DB2AB1B9BB2591C47
:10565000471CD21A014438460CF01EFDA268711B8B
:10566000B2F85430204613FA81F3A2F85430A368FC
:1056700009B2B3F854201344002283F85A2009F0E9
:10568000B3FDA368D3F878329A0603D51049606950
:1056900009F040FD3B46082120460E4A09F0BDFEB8
:1056A0002046FFF7FFFEA368D3F878329B060ED59D
:1056B00060690949BDE8F84009F02CBD0846B9E722
:1056C000014611F80169202EBDD00846B9E7F8BDA2
:1056D000E22B010059530100E62B01002DE9F84FA0
:1056E00004460F4690460AB1FFF7DCFEA668D6F8DE
:1056F0007832B6F856505B0724D505F15A0030448D
:10570000FBF722FF05462A4EB5B9A368B3F854202B
:10571000A3F85620A06809F00AFD30B1B8F1000FD7
:1057200000D017B16069FFF7C9FE79422046BDE895
:10573000F84F09B209F058BD3146606909F0EAFC3A
:10574000013DE1E73046FBF7FFFEB6F85490738F5A
:1057500019FA80F915FA80F0B0FBF3F2B9FBF3F314
:105760009A42AA461BD0134D4845A368CDDA5A8FFA
:10577000461CB0FBF2F302FB130313B96069FFF799
:105780009DFEA368204653442A46082193F85A30C8
:105790000AF1010B09F041FEDA463046E4E75A35DA
:1057A00008212046044A731909F037FEADE700BF0F
:1057B000F24F0100645A01005953010013B5836888
:1057C0008DF80710D3F878220446D00725D5B3F812
:1057D0005610B3F854208A421FD0481C9DF8072069
:1057E000A3F856000B4483F85A20A368D3F8781224
:1057F000890710D5D3F87832606913F0040F18BF09
:105800002A22094909F086FC204609F0A2FC10B1C1
:105810006069FFF753FE02B010BD012220460DF172
:10582000070109F007FEF6E7645A010010B50446C7
:1058300083680221084A09F0F0FDA368D3F87832A2
:105840009B0707D52046FFF76BFE2046BDE81040BA
:1058500009F0A5BC10BD00BF59530100014909F072
:105860006CBE00BFA8500100F8B50F465168044651
:1058700015461E4611B11A4609F06CFEAB6883B19D
:1058800031462046FFF736FE20463B460821054AB2
:1058900009F0C3FD2046A968F21DBDE8F84009F0F3
:1058A00059BEF8BD795A01002DE9F04F0F4600218D
:1058B000044616460D4689B0384603AA01F1010890
:1058C000FFF78EFDA8B98DB126B1324608212046DA
:1058D00009F0A3FD0021DFF89090DFF890B0384682
:1058E00003AA01F1010AFFF77BFD60B909B0BDE829
:1058F000F08F006810B1FBF727FE80B2854238BFF9
:1059000005464146D8E7D0F80080B8F1000F0FD027
:1059100098F8003063B146684B4608212046CDE92F
:105920000058134A09F079FD26B96069FFF796FF20
:105930005146D4E74B465A460821204609F06DFDF2
:10594000AB1DB2079BB209D131680A4A914205D119
:10595000324641462046FFF787FFE9E71A463146BF
:10596000204609F0F7FDE3E79E5A01008B5A01003B
:10597000845A0100C40BD286F7B50F6805460E465F
:10598000EFB13846FBF7E0FD84B2114B08210093DC
:1059900028463B460F4A09F040FD7168E31C9BB264
:1059A00079B18A070DD108680B4A904209D10A469D
:1059B0002846316803B0BDE8F040FFF755BF3C46CC
:1059C000E3E71A46284603B0BDE8F04009F0C2BD3F
:1059D0009A5A01008A580100C40BD28610B50749B3
:1059E0000446FBF79FFD38B120460549FBF79AFDB9
:1059F000B0FA80F0400910BD0120FCE7905A010088
:105A0000935A010010B583680446D3F878329B0698
:105A100003D50649406909F00DFE5022A368002015
:105A20005A871822A3681A8710BD00BFEA2B01000D
:105A300008B5836902491A6809F026F8002008BDF4
:105A4000A15A01002DE9F3410D49054609F01CF862
:105A500000220C4C0C4EDFF83480B44202F10107F6
:105A600003D3002002B0BDE8F081236A92B2009314
:105A7000A3684146284609F007F82C343A46ECE77B
:105A8000B15A0100D4290100002A0100C95A0100BD
:105A900008B5024909F03AF8002008BDA9500100F4
:105AA00073B5044600250D4EA2680DF106030121D1
:105AB000E06802F5AD7209F03BFEBDF80600A36890
:105AC00040B12A463146204603F5AD7308F0DCFFAD
:105AD0000135E9E783F85A0102B070BDDA5A0100D6
:105AE00010B5044609F04BF803490246204608F079
:105AF000CBFF002010BD00BF03560100022907B5EF
:105B00000BD153680C49009312680C4B08F0D8FF76
:105B10006FF0150003B05DF804FB8368084AD3F802
:105B20007832084913F0020F074B18BF1A4608F0E5
:105B3000ABFF0020EEE700BFFD5A0100E85A01006C
:105B4000E45A0100065B0100E144010010B58368DE
:105B50000446D3F878329A0603D50749406909F01C
:105B600069FDA368D3F878329B0603D503496069C1
:105B700009F060FD002010BDF12B0100F62B0100A3
:105B8000F0B50129044685B00AD053685E490093F8
:105B900012685E4B08F094FF6FF0150005B0F0BD81
:105BA0008368D3F87832990603D55949406909F0DA
:105BB00041FD00256FF0F9012046FFF785FCFA2131
:105BC0002046FFF797FCA0684FF48072294600F545
:105BD000AD708DF80B500CF079FA4E49606909F000
:105BE00029FD606908F0DEFF4FF47A7660680122D3
:105BF00003680DF10B011F6903ABB847039BEBB9B9
:105C0000013E4FF47A70B6B20BF089FC002EEDD154
:105C1000A368D3F878329B0603D53F49606909F041
:105C200009FD5022A36820465A871822A3683B49E1
:105C30001A8708F037FF6FF00700AFE79DF80B20D9
:105C4000A3681B2A53D093F85A111B29CED1522A8C
:105C50004DD15A19002382F85A31A66896F85B2173
:105C60005B2A2BD1022506F25B1010F8011F2A4691
:105C70003B2905F10105ADB223D1FF2AC8D002F5B9
:105C8000AD7216FA82F1002211F8010F18BBFA2A40
:105C900028BFFA22FA2B28BFFA2386F85A01A168F6
:105CA0004A87A2681387A368D3F878329A0603D587
:105CB0001949606909F0BEFC00206FE786F85A3187
:105CC000A6E703EB8303303901EB4301B5F5807F91
:105CD0008BB2CAD19CE7013502EB8202ADB23038FB
:105CE00000EB4200B5F5807F82B2CDD190E72B4426
:105CF0000135ADB2092D83F85A217FF677AF002226
:105D0000A36883F85A2183E7FD5A0100E85A01008D
:105D1000FC2B0100515B0100002C0100175B01000E
:105D20002DE9F04F07461546894689B021B1104646
:105D300009F079FD00285BD1032455E05C463CE086
:105D400029460AF5AD700CF018FA0646002854D022
:105D5000FBF7FAFB82B2601C3146013230440CF092
:105D60009BF92246594630460CF089F94FF0200342
:105D70003355BAF8583008F1010801331C44AAF829
:105D80005840002401994B1C484603AA0193FFF791
:105D900027FB0646E8B100222846316809F00DFECF
:105DA0000028EFD1D6F800B0D7F808A0BBF1000F5B
:105DB000C4D05846FBF7C8FB84B2BAF85830234425
:105DC000FF2BBDDD2B46032138460D4A09F025FB8C
:105DD0000124B8F1000F07D0B8682A4600F1580135
:105DE00000F5AD7009F060F8204609B0BDE8F08F0D
:105DF0004FF0000802244146C5E70224E9E700BF4E
:105E00001960010008B5044808F095FA034808F045
:105E100092FA002008BD00BF6B600100A160010084
:105E200038B50C46154609F043FD034B43F8305096
:105E300003EBC0035C6038BDF403002008B50348E1
:105E4000034A0021121A09F034FD08BD800D00201C
:105E5000EC260020074808B5074A0849121A09F03D
:105E60002AFDBDE808400648064A0749121A09F00B
:105E700022BD00BF60000020800D00209866010058
:105E800060000020600000209866010038B50546DB
:105E90000C4699B1D1E901230F48096808F04BFA83
:105EA000D4E90423E1680D4808F045FAE1690C489B
:105EB00008F041FAA1690B4808F03DFA012D05D11F
:105EC000EFF305810848103908F035FA21462846D5
:105ED000BDE8384004F082B9CF600100FF600100E6
